{
  "_format": "hh-sol-artifact-1",
  "contractName": "DNSRegistry",
  "sourceName": "contracts/DNSRegistry.sol",
  "abi": [
    {
      "inputs": [],
      "stateMutability": "nonpayable",
      "type": "constructor"
    },
    {
      "anonymous": false,
      "inputs": [
        {
          "indexed": true,
          "internalType": "address",
          "name": "owner",
          "type": "address"
        },
        {
          "indexed": true,
          "internalType": "address",
          "name": "approved",
          "type": "address"
        },
        {
          "indexed": true,
          "internalType": "uint256",
          "name": "tokenId",
          "type": "uint256"
        }
      ],
      "name": "Approval",
      "type": "event"
    },
    {
      "anonymous": false,
      "inputs": [
        {
          "indexed": true,
          "internalType": "address",
          "name": "owner",
          "type": "address"
        },
        {
          "indexed": true,
          "internalType": "address",
          "name": "operator",
          "type": "address"
        },
        {
          "indexed": false,
          "internalType": "bool",
          "name": "approved",
          "type": "bool"
        }
      ],
      "name": "ApprovalForAll",
      "type": "event"
    },
    {
      "anonymous": false,
      "inputs": [
        {
          "indexed": false,
          "internalType": "uint8",
          "name": "version",
          "type": "uint8"
        }
      ],
      "name": "Initialized",
      "type": "event"
    },
    {
      "anonymous": false,
      "inputs": [
        {
          "indexed": true,
          "internalType": "address",
          "name": "previousOwner",
          "type": "address"
        },
        {
          "indexed": true,
          "internalType": "address",
          "name": "newOwner",
          "type": "address"
        }
      ],
      "name": "OwnershipTransferred",
      "type": "event"
    },
    {
      "anonymous": false,
      "inputs": [
        {
          "indexed": false,
          "internalType": "string",
          "name": "tld",
          "type": "string"
        }
      ],
      "name": "TLDAdded",
      "type": "event"
    },
    {
      "anonymous": false,
      "inputs": [
        {
          "indexed": false,
          "internalType": "string",
          "name": "tld",
          "type": "string"
        }
      ],
      "name": "TLDRemoved",
      "type": "event"
    },
    {
      "anonymous": false,
      "inputs": [
        {
          "indexed": true,
          "internalType": "address",
          "name": "from",
          "type": "address"
        },
        {
          "indexed": true,
          "internalType": "address",
          "name": "to",
          "type": "address"
        },
        {
          "indexed": true,
          "internalType": "uint256",
          "name": "tokenId",
          "type": "uint256"
        }
      ],
      "name": "Transfer",
      "type": "event"
    },
    {
      "inputs": [
        {
          "internalType": "string",
          "name": "tld",
          "type": "string"
        }
      ],
      "name": "addTLD",
      "outputs": [],
      "stateMutability": "nonpayable",
      "type": "function"
    },
    {
      "inputs": [
        {
          "internalType": "address",
          "name": "to",
          "type": "address"
        },
        {
          "internalType": "uint256",
          "name": "tokenId",
          "type": "uint256"
        }
      ],
      "name": "approve",
      "outputs": [],
      "stateMutability": "nonpayable",
      "type": "function"
    },
    {
      "inputs": [
        {
          "internalType": "address",
          "name": "owner",
          "type": "address"
        }
      ],
      "name": "balanceOf",
      "outputs": [
        {
          "internalType": "uint256",
          "name": "",
          "type": "uint256"
        }
      ],
      "stateMutability": "view",
      "type": "function"
    },
    {
      "inputs": [
        {
          "internalType": "uint256",
          "name": "tokenId",
          "type": "uint256"
        }
      ],
      "name": "burn",
      "outputs": [],
      "stateMutability": "nonpayable",
      "type": "function"
    },
    {
      "inputs": [
        {
          "internalType": "uint256",
          "name": "tokenId",
          "type": "uint256"
        }
      ],
      "name": "getApproved",
      "outputs": [
        {
          "internalType": "address",
          "name": "",
          "type": "address"
        }
      ],
      "stateMutability": "view",
      "type": "function"
    },
    {
      "inputs": [],
      "name": "initialize",
      "outputs": [],
      "stateMutability": "nonpayable",
      "type": "function"
    },
    {
      "inputs": [
        {
          "internalType": "address",
          "name": "owner",
          "type": "address"
        },
        {
          "internalType": "address",
          "name": "operator",
          "type": "address"
        }
      ],
      "name": "isApprovedForAll",
      "outputs": [
        {
          "internalType": "bool",
          "name": "",
          "type": "bool"
        }
      ],
      "stateMutability": "view",
      "type": "function"
    },
    {
      "inputs": [
        {
          "internalType": "string",
          "name": "sld",
          "type": "string"
        },
        {
          "internalType": "string",
          "name": "tld",
          "type": "string"
        },
        {
          "internalType": "address",
          "name": "addressRecord",
          "type": "address"
        },
        {
          "internalType": "string",
          "name": "meatadaURI",
          "type": "string"
        }
      ],
      "name": "mintSLD",
      "outputs": [],
      "stateMutability": "nonpayable",
      "type": "function"
    },
    {
      "inputs": [],
      "name": "name",
      "outputs": [
        {
          "internalType": "string",
          "name": "",
          "type": "string"
        }
      ],
      "stateMutability": "view",
      "type": "function"
    },
    {
      "inputs": [],
      "name": "owner",
      "outputs": [
        {
          "internalType": "address",
          "name": "",
          "type": "address"
        }
      ],
      "stateMutability": "view",
      "type": "function"
    },
    {
      "inputs": [
        {
          "internalType": "uint256",
          "name": "tokenId",
          "type": "uint256"
        }
      ],
      "name": "ownerOf",
      "outputs": [
        {
          "internalType": "address",
          "name": "",
          "type": "address"
        }
      ],
      "stateMutability": "view",
      "type": "function"
    },
    {
      "inputs": [
        {
          "internalType": "uint256",
          "name": "",
          "type": "uint256"
        }
      ],
      "name": "records",
      "outputs": [
        {
          "internalType": "address",
          "name": "",
          "type": "address"
        }
      ],
      "stateMutability": "view",
      "type": "function"
    },
    {
      "inputs": [
        {
          "internalType": "string",
          "name": "tld",
          "type": "string"
        }
      ],
      "name": "removeTLD",
      "outputs": [],
      "stateMutability": "nonpayable",
      "type": "function"
    },
    {
      "inputs": [],
      "name": "renounceOwnership",
      "outputs": [],
      "stateMutability": "nonpayable",
      "type": "function"
    },
    {
      "inputs": [
        {
          "internalType": "address",
          "name": "from",
          "type": "address"
        },
        {
          "internalType": "address",
          "name": "to",
          "type": "address"
        },
        {
          "internalType": "uint256",
          "name": "tokenId",
          "type": "uint256"
        }
      ],
      "name": "safeTransferFrom",
      "outputs": [],
      "stateMutability": "nonpayable",
      "type": "function"
    },
    {
      "inputs": [
        {
          "internalType": "address",
          "name": "from",
          "type": "address"
        },
        {
          "internalType": "address",
          "name": "to",
          "type": "address"
        },
        {
          "internalType": "uint256",
          "name": "tokenId",
          "type": "uint256"
        },
        {
          "internalType": "bytes",
          "name": "data",
          "type": "bytes"
        }
      ],
      "name": "safeTransferFrom",
      "outputs": [],
      "stateMutability": "nonpayable",
      "type": "function"
    },
    {
      "inputs": [
        {
          "internalType": "address",
          "name": "operator",
          "type": "address"
        },
        {
          "internalType": "bool",
          "name": "approved",
          "type": "bool"
        }
      ],
      "name": "setApprovalForAll",
      "outputs": [],
      "stateMutability": "nonpayable",
      "type": "function"
    },
    {
      "inputs": [
        {
          "internalType": "string",
          "name": "",
          "type": "string"
        }
      ],
      "name": "supportedTLDs",
      "outputs": [
        {
          "internalType": "bool",
          "name": "",
          "type": "bool"
        }
      ],
      "stateMutability": "view",
      "type": "function"
    },
    {
      "inputs": [
        {
          "internalType": "bytes4",
          "name": "interfaceId",
          "type": "bytes4"
        }
      ],
      "name": "supportsInterface",
      "outputs": [
        {
          "internalType": "bool",
          "name": "",
          "type": "bool"
        }
      ],
      "stateMutability": "view",
      "type": "function"
    },
    {
      "inputs": [],
      "name": "symbol",
      "outputs": [
        {
          "internalType": "string",
          "name": "",
          "type": "string"
        }
      ],
      "stateMutability": "view",
      "type": "function"
    },
    {
      "inputs": [
        {
          "internalType": "uint256",
          "name": "index",
          "type": "uint256"
        }
      ],
      "name": "tokenByIndex",
      "outputs": [
        {
          "internalType": "uint256",
          "name": "",
          "type": "uint256"
        }
      ],
      "stateMutability": "view",
      "type": "function"
    },
    {
      "inputs": [
        {
          "internalType": "address",
          "name": "owner",
          "type": "address"
        },
        {
          "internalType": "uint256",
          "name": "index",
          "type": "uint256"
        }
      ],
      "name": "tokenOfOwnerByIndex",
      "outputs": [
        {
          "internalType": "uint256",
          "name": "",
          "type": "uint256"
        }
      ],
      "stateMutability": "view",
      "type": "function"
    },
    {
      "inputs": [
        {
          "internalType": "uint256",
          "name": "tokenId",
          "type": "uint256"
        }
      ],
      "name": "tokenURI",
      "outputs": [
        {
          "internalType": "string",
          "name": "",
          "type": "string"
        }
      ],
      "stateMutability": "view",
      "type": "function"
    },
    {
      "inputs": [],
      "name": "totalSupply",
      "outputs": [
        {
          "internalType": "uint256",
          "name": "",
          "type": "uint256"
        }
      ],
      "stateMutability": "view",
      "type": "function"
    },
    {
      "inputs": [
        {
          "internalType": "address",
          "name": "from",
          "type": "address"
        },
        {
          "internalType": "address",
          "name": "to",
          "type": "address"
        },
        {
          "internalType": "uint256",
          "name": "tokenId",
          "type": "uint256"
        }
      ],
      "name": "transferFrom",
      "outputs": [],
      "stateMutability": "nonpayable",
      "type": "function"
    },
    {
      "inputs": [
        {
          "internalType": "address",
          "name": "newOwner",
          "type": "address"
        }
      ],
      "name": "transferOwnership",
      "outputs": [],
      "stateMutability": "nonpayable",
      "type": "function"
    },
    {
      "inputs": [
        {
          "internalType": "uint256",
          "name": "tokenId",
          "type": "uint256"
        },
        {
          "internalType": "address",
          "name": "addressRecord",
          "type": "address"
        },
        {
          "internalType": "string",
          "name": "meatadaURI",
          "type": "string"
        }
      ],
      "name": "updateSLD",
      "outputs": [],
      "stateMutability": "nonpayable",
      "type": "function"
    }
  ],
  "bytecode": "0x60806040523480156200001157600080fd5b50620000226200002860201b60201c565b620001d3565b600060019054906101000a900460ff16156200007b576040517f08c379a0000000000000000000000000000000000000000000000000000000008152600401620000729062000176565b60405180910390fd5b60ff801660008054906101000a900460ff1660ff161015620000ed5760ff6000806101000a81548160ff021916908360ff1602179055507f7f26b83ff96e1f2b6a682f133852f6798a09c465da95921460cefb384740249860ff604051620000e49190620001b6565b60405180910390a15b565b600082825260208201905092915050565b7f496e697469616c697a61626c653a20636f6e747261637420697320696e69746960008201527f616c697a696e6700000000000000000000000000000000000000000000000000602082015250565b60006200015e602783620000ef565b91506200016b8262000100565b604082019050919050565b6000602082019050818103600083015262000191816200014f565b9050919050565b600060ff82169050919050565b620001b08162000198565b82525050565b6000602082019050620001cd6000830184620001a5565b92915050565b614b6180620001e36000396000f3fe608060405234801561001057600080fd5b50600436106101a95760003560e01c806370a08231116100f957806396da587311610097578063b88d4fde11610071578063b88d4fde146104b6578063c87b56dd146104d2578063e985e9c514610502578063f2fde38b14610532576101a9565b806396da58731461044e578063a22cb4651461046a578063b003692a14610486576101a9565b80638180d972116100d35780638180d972146103da5780638da5cb5b146103f657806395caf2281461041457806395d89b4114610430576101a9565b806370a0823114610396578063715018a6146103c65780638129fc1c146103d0576101a9565b80632f745c591161016657806342966c681161014057806342966c68146102fe5780634f6ccce71461031a5780636352211e1461034a5780636b7f07531461037a576101a9565b80632f745c591461028257806334461067146102b257806342842e0e146102e2576101a9565b806301ffc9a7146101ae57806306fdde03146101de578063081812fc146101fc578063095ea7b31461022c57806318160ddd1461024857806323b872dd14610266575b600080fd5b6101c860048036038101906101c391906130af565b61054e565b6040516101d591906130f7565b60405180910390f35b6101e6610560565b6040516101f391906131a2565b60405180910390f35b610216600480360381019061021191906131fa565b6105f2565b6040516102239190613268565b60405180910390f35b610246600480360381019061024191906132af565b610638565b005b61025061074f565b60405161025d91906132fe565b60405180910390f35b610280600480360381019061027b9190613319565b61075c565b005b61029c600480360381019061029791906132af565b6107bc565b6040516102a991906132fe565b60405180910390f35b6102cc60048036038101906102c791906131fa565b610861565b6040516102d99190613268565b60405180910390f35b6102fc60048036038101906102f79190613319565b610895565b005b610318600480360381019061031391906131fa565b6108b5565b005b610334600480360381019061032f91906131fa565b610911565b60405161034191906132fe565b60405180910390f35b610364600480360381019061035f91906131fa565b610982565b6040516103719190613268565b60405180910390f35b610394600480360381019061038f91906133d1565b610a08565b005b6103b060048036038101906103ab9190613445565b610b25565b6040516103bd91906132fe565b60405180910390f35b6103ce610bdc565b005b6103d8610bf0565b005b6103f460048036038101906103ef9190613472565b610dba565b005b6103fe610e76565b60405161040b9190613268565b60405180910390f35b61042e600480360381019061042991906134bf565b610ea1565b005b6104386110a0565b60405161044591906131a2565b60405180910390f35b61046860048036038101906104639190613472565b611132565b005b610484600480360381019061047f91906135b4565b6111f7565b005b6104a0600480360381019061049b9190613724565b61120d565b6040516104ad91906130f7565b60405180910390f35b6104d060048036038101906104cb919061380e565b611244565b005b6104ec60048036038101906104e791906131fa565b6112a6565b6040516104f991906131a2565b60405180910390f35b61051c60048036038101906105179190613891565b6112b8565b60405161052991906130f7565b60405180910390f35b61054c60048036038101906105479190613445565b61134c565b005b6000610559826113cf565b9050919050565b60606065805461056f90613900565b80601f016020809104026020016040519081016040528092919081815260200182805461059b90613900565b80156105e85780601f106105bd576101008083540402835291602001916105e8565b820191906000526020600020905b8154815290600101906020018083116105cb57829003601f168201915b5050505050905090565b60006105fd82611449565b6069600083815260200190815260200160002060009054906101000a900473ffffffffffffffffffffffffffffffffffffffff169050919050565b600061064382610982565b90508073ffffffffffffffffffffffffffffffffffffffff168373ffffffffffffffffffffffffffffffffffffffff16036106b3576040517f08c379a00000000000000000000000000000000000000000000000000000000081526004016106aa906139a3565b60405180910390fd5b8073ffffffffffffffffffffffffffffffffffffffff166106d2611494565b73ffffffffffffffffffffffffffffffffffffffff1614806107015750610700816106fb611494565b6112b8565b5b610740576040517f08c379a000000000000000000000000000000000000000000000000000000000815260040161073790613a35565b60405180910390fd5b61074a838361149c565b505050565b600060fd80549050905090565b61076d610767611494565b82611555565b6107ac576040517f08c379a00000000000000000000000000000000000000000000000000000000081526004016107a390613ac7565b60405180910390fd5b6107b78383836115ea565b505050565b60006107c783610b25565b8210610808576040517f08c379a00000000000000000000000000000000000000000000000000000000081526004016107ff90613b59565b60405180910390fd5b60fb60008473ffffffffffffffffffffffffffffffffffffffff1673ffffffffffffffffffffffffffffffffffffffff168152602001908152602001600020600083815260200190815260200160002054905092915050565b6101606020528060005260406000206000915054906101000a900473ffffffffffffffffffffffffffffffffffffffff1681565b6108b083838360405180602001604052806000815250611244565b505050565b6108c66108c0611494565b82611555565b610905576040517f08c379a00000000000000000000000000000000000000000000000000000000081526004016108fc90613ac7565b60405180910390fd5b61090e816118e3565b50565b600061091b61074f565b821061095c576040517f08c379a000000000000000000000000000000000000000000000000000000000815260040161095390613beb565b60405180910390fd5b60fd82815481106109705761096f613c0b565b5b90600052602060002001549050919050565b60008061098e83611926565b9050600073ffffffffffffffffffffffffffffffffffffffff168173ffffffffffffffffffffffffffffffffffffffff16036109ff576040517f08c379a00000000000000000000000000000000000000000000000000000000081526004016109f690613c86565b60405180910390fd5b80915050919050565b3373ffffffffffffffffffffffffffffffffffffffff16610a2885610982565b73ffffffffffffffffffffffffffffffffffffffff1614610a7e576040517f08c379a0000000000000000000000000000000000000000000000000000000008152600401610a7590613cf2565b60405180910390fd5b610acc8483838080601f016020809104026020016040519081016040528093929190818152602001838380828437600081840152601f19601f82011690508083019250505050505050611963565b82610160600086815260200190815260200160002060006101000a81548173ffffffffffffffffffffffffffffffffffffffff021916908373ffffffffffffffffffffffffffffffffffffffff16021790555050505050565b60008073ffffffffffffffffffffffffffffffffffffffff168273ffffffffffffffffffffffffffffffffffffffff1603610b95576040517f08c379a0000000000000000000000000000000000000000000000000000000008152600401610b8c90613d84565b60405180910390fd5b606860008373ffffffffffffffffffffffffffffffffffffffff1673ffffffffffffffffffffffffffffffffffffffff168152602001908152602001600020549050919050565b610be46119d0565b610bee6000611a4e565b565b60008060019054906101000a900460ff16159050808015610c215750600160008054906101000a900460ff1660ff16105b80610c4e5750610c3030611b16565b158015610c4d5750600160008054906101000a900460ff1660ff16145b5b610c8d576040517f08c379a0000000000000000000000000000000000000000000000000000000008152600401610c8490613e16565b60405180910390fd5b60016000806101000a81548160ff021916908360ff1602179055508015610cca576001600060016101000a81548160ff0219169083151502179055505b610d3e6040518060400160405280600b81526020017f444e5352656769737472790000000000000000000000000000000000000000008152506040518060400160405280600381526020017f444e530000000000000000000000000000000000000000000000000000000000815250611b39565b610d46611b96565b610d4e611be7565b610d56611c38565b610d5e611c91565b8015610db75760008060016101000a81548160ff0219169083151502179055507f7f26b83ff96e1f2b6a682f133852f6798a09c465da95921460cefb38474024986001604051610dae9190613e88565b60405180910390a15b50565b610dc26119d0565b60008282905003610e08576040517f08c379a0000000000000000000000000000000000000000000000000000000008152600401610dff90613eef565b60405180910390fd5b61015f8282604051610e1b929190613f3f565b908152602001604051809103902060006101000a81549060ff02191690557f3b14beeab8d6fec278a2548b0cf4f81c07eb2e20c9857409ee3683fc6339fede8282604051610e6a929190613f85565b60405180910390a15050565b600061012d60009054906101000a900473ffffffffffffffffffffffffffffffffffffffff16905090565b61015f8585604051610eb4929190613f3f565b908152602001604051809103902060009054906101000a900460ff16610f0f576040517f08c379a0000000000000000000000000000000000000000000000000000000008152600401610f0690613ff5565b60405180910390fd5b60008787905003610f55576040517f08c379a0000000000000000000000000000000000000000000000000000000008152600401610f4c90614061565b60405180910390fd5b6000610fe986868080601f016020809104026020016040519081016040528093929190818152602001838380828437600081840152601f19601f8201169050808301925050505050505089898080601f016020809104026020016040519081016040528093929190818152602001838380828437600081840152601f19601f82011690508083019250505050505050611ce2565b9050610ff53382611d49565b6110438184848080601f016020809104026020016040519081016040528093929190818152602001838380828437600081840152601f19601f82011690508083019250505050505050611963565b83610160600083815260200190815260200160002060006101000a81548173ffffffffffffffffffffffffffffffffffffffff021916908373ffffffffffffffffffffffffffffffffffffffff1602179055505050505050505050565b6060606680546110af90613900565b80601f01602080910402602001604051908101604052809291908181526020018280546110db90613900565b80156111285780601f106110fd57610100808354040283529160200191611128565b820191906000526020600020905b81548152906001019060200180831161110b57829003601f168201915b5050505050905090565b61113a6119d0565b60008282905003611180576040517f08c379a000000000000000000000000000000000000000000000000000000000815260040161117790613eef565b60405180910390fd5b600161015f8383604051611195929190613f3f565b908152602001604051809103902060006101000a81548160ff0219169083151502179055507fed3f23f55411017bf02ca9b55fe0b475cda6263efccf43fb54e11659e54f4f6682826040516111eb929190613f85565b60405180910390a15050565b611209611202611494565b8383611d67565b5050565b61015f818051602081018201805184825260208301602085012081835280955050505050506000915054906101000a900460ff1681565b61125561124f611494565b83611555565b611294576040517f08c379a000000000000000000000000000000000000000000000000000000000815260040161128b90613ac7565b60405180910390fd5b6112a084848484611ed3565b50505050565b60606112b182611f2f565b9050919050565b6000606a60008473ffffffffffffffffffffffffffffffffffffffff1673ffffffffffffffffffffffffffffffffffffffff16815260200190815260200160002060008373ffffffffffffffffffffffffffffffffffffffff1673ffffffffffffffffffffffffffffffffffffffff16815260200190815260200160002060009054906101000a900460ff16905092915050565b6113546119d0565b600073ffffffffffffffffffffffffffffffffffffffff168173ffffffffffffffffffffffffffffffffffffffff16036113c3576040517f08c379a00000000000000000000000000000000000000000000000000000000081526004016113ba906140f3565b60405180910390fd5b6113cc81611a4e565b50565b60007f780e9d63000000000000000000000000000000000000000000000000000000007bffffffffffffffffffffffffffffffffffffffffffffffffffffffff1916827bffffffffffffffffffffffffffffffffffffffffffffffffffffffff19161480611442575061144182612041565b5b9050919050565b61145281612123565b611491576040517f08c379a000000000000000000000000000000000000000000000000000000000815260040161148890613c86565b60405180910390fd5b50565b600033905090565b816069600083815260200190815260200160002060006101000a81548173ffffffffffffffffffffffffffffffffffffffff021916908373ffffffffffffffffffffffffffffffffffffffff160217905550808273ffffffffffffffffffffffffffffffffffffffff1661150f83610982565b73ffffffffffffffffffffffffffffffffffffffff167f8c5be1e5ebec7d5bd14f71427d1e84f3dd0314c0f7b2291e5b200ac8c7c3b92560405160405180910390a45050565b60008061156183610982565b90508073ffffffffffffffffffffffffffffffffffffffff168473ffffffffffffffffffffffffffffffffffffffff1614806115a357506115a281856112b8565b5b806115e157508373ffffffffffffffffffffffffffffffffffffffff166115c9846105f2565b73ffffffffffffffffffffffffffffffffffffffff16145b91505092915050565b8273ffffffffffffffffffffffffffffffffffffffff1661160a82610982565b73ffffffffffffffffffffffffffffffffffffffff1614611660576040517f08c379a000000000000000000000000000000000000000000000000000000000815260040161165790614185565b60405180910390fd5b600073ffffffffffffffffffffffffffffffffffffffff168273ffffffffffffffffffffffffffffffffffffffff16036116cf576040517f08c379a00000000000000000000000000000000000000000000000000000000081526004016116c690614217565b60405180910390fd5b6116dc8383836001612164565b8273ffffffffffffffffffffffffffffffffffffffff166116fc82610982565b73ffffffffffffffffffffffffffffffffffffffff1614611752576040517f08c379a000000000000000000000000000000000000000000000000000000000815260040161174990614185565b60405180910390fd5b6069600082815260200190815260200160002060006101000a81549073ffffffffffffffffffffffffffffffffffffffff02191690556001606860008573ffffffffffffffffffffffffffffffffffffffff1673ffffffffffffffffffffffffffffffffffffffff168152602001908152602001600020600082825403925050819055506001606860008473ffffffffffffffffffffffffffffffffffffffff1673ffffffffffffffffffffffffffffffffffffffff16815260200190815260200160002060008282540192505081905550816067600083815260200190815260200160002060006101000a81548173ffffffffffffffffffffffffffffffffffffffff021916908373ffffffffffffffffffffffffffffffffffffffff160217905550808273ffffffffffffffffffffffffffffffffffffffff168473ffffffffffffffffffffffffffffffffffffffff167fddf252ad1be2c89b69c2b068fc378daa952ba7f163c4a11628f55a4df523b3ef60405160405180910390a46118de8383836001612176565b505050565b6118ec8161217c565b610160600082815260200190815260200160002060006101000a81549073ffffffffffffffffffffffffffffffffffffffff021916905550565b60006067600083815260200190815260200160002060009054906101000a900473ffffffffffffffffffffffffffffffffffffffff169050919050565b61196c82612123565b6119ab576040517f08c379a00000000000000000000000000000000000000000000000000000000081526004016119a2906142a9565b60405180910390fd5b806097600084815260200190815260200160002090816119cb919061446b565b505050565b6119d8611494565b73ffffffffffffffffffffffffffffffffffffffff166119f6610e76565b73ffffffffffffffffffffffffffffffffffffffff1614611a4c576040517f08c379a0000000000000000000000000000000000000000000000000000000008152600401611a4390614589565b60405180910390fd5b565b600061012d60009054906101000a900473ffffffffffffffffffffffffffffffffffffffff1690508161012d60006101000a81548173ffffffffffffffffffffffffffffffffffffffff021916908373ffffffffffffffffffffffffffffffffffffffff1602179055508173ffffffffffffffffffffffffffffffffffffffff168173ffffffffffffffffffffffffffffffffffffffff167f8be0079c531659141344cd1fd0a4f28419497f9722a3daafe3b4186f6b6457e060405160405180910390a35050565b6000808273ffffffffffffffffffffffffffffffffffffffff163b119050919050565b600060019054906101000a900460ff16611b88576040517f08c379a0000000000000000000000000000000000000000000000000000000008152600401611b7f9061461b565b60405180910390fd5b611b9282826121cf565b5050565b600060019054906101000a900460ff16611be5576040517f08c379a0000000000000000000000000000000000000000000000000000000008152600401611bdc9061461b565b60405180910390fd5b565b600060019054906101000a900460ff16611c36576040517f08c379a0000000000000000000000000000000000000000000000000000000008152600401611c2d9061461b565b60405180910390fd5b565b600060019054906101000a900460ff16611c87576040517f08c379a0000000000000000000000000000000000000000000000000000000008152600401611c7e9061461b565b60405180910390fd5b611c8f612242565b565b600060019054906101000a900460ff16611ce0576040517f08c379a0000000000000000000000000000000000000000000000000000000008152600401611cd79061461b565b60405180910390fd5b565b600080825103611d27576040517f08c379a0000000000000000000000000000000000000000000000000000000008152600401611d1e90614061565b60405180910390fd5b6000611d346000856122a3565b9050611d4081846122a3565b91505092915050565b611d638282604051806020016040528060008152506122ff565b5050565b8173ffffffffffffffffffffffffffffffffffffffff168373ffffffffffffffffffffffffffffffffffffffff1603611dd5576040517f08c379a0000000000000000000000000000000000000000000000000000000008152600401611dcc90614687565b60405180910390fd5b80606a60008573ffffffffffffffffffffffffffffffffffffffff1673ffffffffffffffffffffffffffffffffffffffff16815260200190815260200160002060008473ffffffffffffffffffffffffffffffffffffffff1673ffffffffffffffffffffffffffffffffffffffff16815260200190815260200160002060006101000a81548160ff0219169083151502179055508173ffffffffffffffffffffffffffffffffffffffff168373ffffffffffffffffffffffffffffffffffffffff167f17307eab39ab6107e8899845ad3d59bd9653f200f220920489ca2b5937696c3183604051611ec691906130f7565b60405180910390a3505050565b611ede8484846115ea565b611eea8484848461235a565b611f29576040517f08c379a0000000000000000000000000000000000000000000000000000000008152600401611f2090614719565b60405180910390fd5b50505050565b6060611f3a82611449565b6000609760008481526020019081526020016000208054611f5a90613900565b80601f0160208091040260200160405190810160405280929190818152602001828054611f8690613900565b8015611fd35780601f10611fa857610100808354040283529160200191611fd3565b820191906000526020600020905b815481529060010190602001808311611fb657829003601f168201915b505050505090506000611fe46124e1565b90506000815103611ff957819250505061203c565b60008251111561202e57808260405160200161201692919061476a565b6040516020818303038152906040529250505061203c565b6120378461251e565b925050505b919050565b60007f80ac58cd000000000000000000000000000000000000000000000000000000007bffffffffffffffffffffffffffffffffffffffffffffffffffffffff1916827bffffffffffffffffffffffffffffffffffffffffffffffffffffffff1916148061210c57507f5b5e139f000000000000000000000000000000000000000000000000000000007bffffffffffffffffffffffffffffffffffffffffffffffffffffffff1916827bffffffffffffffffffffffffffffffffffffffffffffffffffffffff1916145b8061211c575061211b82612586565b5b9050919050565b60008073ffffffffffffffffffffffffffffffffffffffff1661214583611926565b73ffffffffffffffffffffffffffffffffffffffff1614159050919050565b612170848484846125f0565b50505050565b50505050565b6121858161274e565b60006097600083815260200190815260200160002080546121a590613900565b9050146121cc576097600082815260200190815260200160002060006121cb9190612fe6565b5b50565b600060019054906101000a900460ff1661221e576040517f08c379a00000000000000000000000000000000000000000000000000000000081526004016122159061461b565b60405180910390fd5b816065908161222d919061446b565b50806066908161223d919061446b565b505050565b600060019054906101000a900460ff16612291576040517f08c379a00000000000000000000000000000000000000000000000000000000081526004016122889061461b565b60405180910390fd5b6122a161229c611494565b611a4e565b565b600082826040516020016122b7919061478e565b604051602081830303815290604052805190602001206040516020016122de9291906147f1565b6040516020818303038152906040528051906020012060001c905092915050565b612309838361289c565b612316600084848461235a565b612355576040517f08c379a000000000000000000000000000000000000000000000000000000000815260040161234c90614719565b60405180910390fd5b505050565b600061237b8473ffffffffffffffffffffffffffffffffffffffff16611b16565b156124d4578373ffffffffffffffffffffffffffffffffffffffff1663150b7a026123a4611494565b8786866040518563ffffffff1660e01b81526004016123c69493929190614872565b6020604051808303816000875af192505050801561240257506040513d601f19601f820116820180604052508101906123ff91906148d3565b60015b612484573d8060008114612432576040519150601f19603f3d011682016040523d82523d6000602084013e612437565b606091505b50600081510361247c576040517f08c379a000000000000000000000000000000000000000000000000000000000815260040161247390614719565b60405180910390fd5b805181602001fd5b63150b7a0260e01b7bffffffffffffffffffffffffffffffffffffffffffffffffffffffff1916817bffffffffffffffffffffffffffffffffffffffffffffffffffffffff1916149150506124d9565b600190505b949350505050565b60606040518060400160405280601d81526020017f68747470733a2f2f6e667473746f726167652e6c696e6b2f697066732f000000815250905090565b606061252982611449565b60006125336124e1565b90506000815111612553576040518060200160405280600081525061257e565b8061255d84612ab9565b60405160200161256e92919061476a565b6040516020818303038152906040525b915050919050565b60007f01ffc9a7000000000000000000000000000000000000000000000000000000007bffffffffffffffffffffffffffffffffffffffffffffffffffffffff1916827bffffffffffffffffffffffffffffffffffffffffffffffffffffffff1916149050919050565b6125fc84848484612b87565b6001811115612640576040517f08c379a000000000000000000000000000000000000000000000000000000000815260040161263790614972565b60405180910390fd5b6000829050600073ffffffffffffffffffffffffffffffffffffffff168573ffffffffffffffffffffffffffffffffffffffff16036126875761268281612b8d565b6126c6565b8373ffffffffffffffffffffffffffffffffffffffff168573ffffffffffffffffffffffffffffffffffffffff16146126c5576126c48582612bd6565b5b5b600073ffffffffffffffffffffffffffffffffffffffff168473ffffffffffffffffffffffffffffffffffffffff16036127085761270381612d43565b612747565b8473ffffffffffffffffffffffffffffffffffffffff168473ffffffffffffffffffffffffffffffffffffffff1614612746576127458482612e14565b5b5b5050505050565b600061275982610982565b9050612769816000846001612164565b61277282610982565b90506069600083815260200190815260200160002060006101000a81549073ffffffffffffffffffffffffffffffffffffffff02191690556001606860008373ffffffffffffffffffffffffffffffffffffffff1673ffffffffffffffffffffffffffffffffffffffff168152602001908152602001600020600082825403925050819055506067600083815260200190815260200160002060006101000a81549073ffffffffffffffffffffffffffffffffffffffff021916905581600073ffffffffffffffffffffffffffffffffffffffff168273ffffffffffffffffffffffffffffffffffffffff167fddf252ad1be2c89b69c2b068fc378daa952ba7f163c4a11628f55a4df523b3ef60405160405180910390a4612898816000846001612176565b5050565b600073ffffffffffffffffffffffffffffffffffffffff168273ffffffffffffffffffffffffffffffffffffffff160361290b576040517f08c379a0000000000000000000000000000000000000000000000000000000008152600401612902906149de565b60405180910390fd5b61291481612123565b15612954576040517f08c379a000000000000000000000000000000000000000000000000000000000815260040161294b90614a4a565b60405180910390fd5b612962600083836001612164565b61296b81612123565b156129ab576040517f08c379a00000000000000000000000000000000000000000000000000000000081526004016129a290614a4a565b60405180910390fd5b6001606860008473ffffffffffffffffffffffffffffffffffffffff1673ffffffffffffffffffffffffffffffffffffffff16815260200190815260200160002060008282540192505081905550816067600083815260200190815260200160002060006101000a81548173ffffffffffffffffffffffffffffffffffffffff021916908373ffffffffffffffffffffffffffffffffffffffff160217905550808273ffffffffffffffffffffffffffffffffffffffff16600073ffffffffffffffffffffffffffffffffffffffff167fddf252ad1be2c89b69c2b068fc378daa952ba7f163c4a11628f55a4df523b3ef60405160405180910390a4612ab5600083836001612176565b5050565b606060006001612ac884612e93565b01905060008167ffffffffffffffff811115612ae757612ae66135f9565b5b6040519080825280601f01601f191660200182016040528015612b195781602001600182028036833780820191505090505b509050600082602001820190505b600115612b7c578080600190039150507f3031323334353637383961626364656600000000000000000000000000000000600a86061a8153600a8581612b7057612b6f614a6a565b5b04945060008503612b27575b819350505050919050565b50505050565b60fd8054905060fe60008381526020019081526020016000208190555060fd81908060018154018082558091505060019003906000526020600020016000909190919091505550565b60006001612be384610b25565b612bed9190614ac8565b9050600060fc6000848152602001908152602001600020549050818114612cd257600060fb60008673ffffffffffffffffffffffffffffffffffffffff1673ffffffffffffffffffffffffffffffffffffffff16815260200190815260200160002060008481526020019081526020016000205490508060fb60008773ffffffffffffffffffffffffffffffffffffffff1673ffffffffffffffffffffffffffffffffffffffff1681526020019081526020016000206000848152602001908152602001600020819055508160fc600083815260200190815260200160002081905550505b60fc60008481526020019081526020016000206000905560fb60008573ffffffffffffffffffffffffffffffffffffffff1673ffffffffffffffffffffffffffffffffffffffff16815260200190815260200160002060008381526020019081526020016000206000905550505050565b6000600160fd80549050612d579190614ac8565b9050600060fe6000848152602001908152602001600020549050600060fd8381548110612d8757612d86613c0b565b5b906000526020600020015490508060fd8381548110612da957612da8613c0b565b5b90600052602060002001819055508160fe60008381526020019081526020016000208190555060fe60008581526020019081526020016000206000905560fd805480612df857612df7614afc565b5b6001900381819060005260206000200160009055905550505050565b6000612e1f83610b25565b90508160fb60008573ffffffffffffffffffffffffffffffffffffffff1673ffffffffffffffffffffffffffffffffffffffff1681526020019081526020016000206000838152602001908152602001600020819055508060fc600084815260200190815260200160002081905550505050565b600080600090507a184f03e93ff9f4daa797ed6e38ed64bf6a1f0100000000000000008310612ef1577a184f03e93ff9f4daa797ed6e38ed64bf6a1f0100000000000000008381612ee757612ee6614a6a565b5b0492506040810190505b6d04ee2d6d415b85acef81000000008310612f2e576d04ee2d6d415b85acef81000000008381612f2457612f23614a6a565b5b0492506020810190505b662386f26fc100008310612f5d57662386f26fc100008381612f5357612f52614a6a565b5b0492506010810190505b6305f5e1008310612f86576305f5e1008381612f7c57612f7b614a6a565b5b0492506008810190505b6127108310612fab576127108381612fa157612fa0614a6a565b5b0492506004810190505b60648310612fce5760648381612fc457612fc3614a6a565b5b0492506002810190505b600a8310612fdd576001810190505b80915050919050565b508054612ff290613900565b6000825580601f106130045750613023565b601f0160209004906000526020600020908101906130229190613026565b5b50565b5b8082111561303f576000816000905550600101613027565b5090565b6000604051905090565b600080fd5b600080fd5b60007fffffffff0000000000000000000000000000000000000000000000000000000082169050919050565b61308c81613057565b811461309757600080fd5b50565b6000813590506130a981613083565b92915050565b6000602082840312156130c5576130c461304d565b5b60006130d38482850161309a565b91505092915050565b60008115159050919050565b6130f1816130dc565b82525050565b600060208201905061310c60008301846130e8565b92915050565b600081519050919050565b600082825260208201905092915050565b60005b8381101561314c578082015181840152602081019050613131565b60008484015250505050565b6000601f19601f8301169050919050565b600061317482613112565b61317e818561311d565b935061318e81856020860161312e565b61319781613158565b840191505092915050565b600060208201905081810360008301526131bc8184613169565b905092915050565b6000819050919050565b6131d7816131c4565b81146131e257600080fd5b50565b6000813590506131f4816131ce565b92915050565b6000602082840312156132105761320f61304d565b5b600061321e848285016131e5565b91505092915050565b600073ffffffffffffffffffffffffffffffffffffffff82169050919050565b600061325282613227565b9050919050565b61326281613247565b82525050565b600060208201905061327d6000830184613259565b92915050565b61328c81613247565b811461329757600080fd5b50565b6000813590506132a981613283565b92915050565b600080604083850312156132c6576132c561304d565b5b60006132d48582860161329a565b92505060206132e5858286016131e5565b9150509250929050565b6132f8816131c4565b82525050565b600060208201905061331360008301846132ef565b92915050565b6000806000606084860312156133325761333161304d565b5b60006133408682870161329a565b93505060206133518682870161329a565b9250506040613362868287016131e5565b9150509250925092565b600080fd5b600080fd5b600080fd5b60008083601f8401126133915761339061336c565b5b8235905067ffffffffffffffff8111156133ae576133ad613371565b5b6020830191508360018202830111156133ca576133c9613376565b5b9250929050565b600080600080606085870312156133eb576133ea61304d565b5b60006133f9878288016131e5565b945050602061340a8782880161329a565b935050604085013567ffffffffffffffff81111561342b5761342a613052565b5b6134378782880161337b565b925092505092959194509250565b60006020828403121561345b5761345a61304d565b5b60006134698482850161329a565b91505092915050565b600080602083850312156134895761348861304d565b5b600083013567ffffffffffffffff8111156134a7576134a6613052565b5b6134b38582860161337b565b92509250509250929050565b60008060008060008060006080888a0312156134de576134dd61304d565b5b600088013567ffffffffffffffff8111156134fc576134fb613052565b5b6135088a828b0161337b565b9750975050602088013567ffffffffffffffff81111561352b5761352a613052565b5b6135378a828b0161337b565b9550955050604061354a8a828b0161329a565b935050606088013567ffffffffffffffff81111561356b5761356a613052565b5b6135778a828b0161337b565b925092505092959891949750929550565b613591816130dc565b811461359c57600080fd5b50565b6000813590506135ae81613588565b92915050565b600080604083850312156135cb576135ca61304d565b5b60006135d98582860161329a565b92505060206135ea8582860161359f565b9150509250929050565b600080fd5b7f4e487b7100000000000000000000000000000000000000000000000000000000600052604160045260246000fd5b61363182613158565b810181811067ffffffffffffffff821117156136505761364f6135f9565b5b80604052505050565b6000613663613043565b905061366f8282613628565b919050565b600067ffffffffffffffff82111561368f5761368e6135f9565b5b61369882613158565b9050602081019050919050565b82818337600083830152505050565b60006136c76136c284613674565b613659565b9050828152602081018484840111156136e3576136e26135f4565b5b6136ee8482856136a5565b509392505050565b600082601f83011261370b5761370a61336c565b5b813561371b8482602086016136b4565b91505092915050565b60006020828403121561373a5761373961304d565b5b600082013567ffffffffffffffff81111561375857613757613052565b5b613764848285016136f6565b91505092915050565b600067ffffffffffffffff821115613788576137876135f9565b5b61379182613158565b9050602081019050919050565b60006137b16137ac8461376d565b613659565b9050828152602081018484840111156137cd576137cc6135f4565b5b6137d88482856136a5565b509392505050565b600082601f8301126137f5576137f461336c565b5b813561380584826020860161379e565b91505092915050565b600080600080608085870312156138285761382761304d565b5b60006138368782880161329a565b94505060206138478782880161329a565b9350506040613858878288016131e5565b925050606085013567ffffffffffffffff81111561387957613878613052565b5b613885878288016137e0565b91505092959194509250565b600080604083850312156138a8576138a761304d565b5b60006138b68582860161329a565b92505060206138c78582860161329a565b9150509250929050565b7f4e487b7100000000000000000000000000000000000000000000000000000000600052602260045260246000fd5b6000600282049050600182168061391857607f821691505b60208210810361392b5761392a6138d1565b5b50919050565b7f4552433732313a20617070726f76616c20746f2063757272656e74206f776e6560008201527f7200000000000000000000000000000000000000000000000000000000000000602082015250565b600061398d60218361311d565b915061399882613931565b604082019050919050565b600060208201905081810360008301526139bc81613980565b9050919050565b7f4552433732313a20617070726f76652063616c6c6572206973206e6f7420746f60008201527f6b656e206f776e6572206f7220617070726f76656420666f7220616c6c000000602082015250565b6000613a1f603d8361311d565b9150613a2a826139c3565b604082019050919050565b60006020820190508181036000830152613a4e81613a12565b9050919050565b7f4552433732313a2063616c6c6572206973206e6f7420746f6b656e206f776e6560008201527f72206f7220617070726f76656400000000000000000000000000000000000000602082015250565b6000613ab1602d8361311d565b9150613abc82613a55565b604082019050919050565b60006020820190508181036000830152613ae081613aa4565b9050919050565b7f455243373231456e756d657261626c653a206f776e657220696e646578206f7560008201527f74206f6620626f756e6473000000000000000000000000000000000000000000602082015250565b6000613b43602b8361311d565b9150613b4e82613ae7565b604082019050919050565b60006020820190508181036000830152613b7281613b36565b9050919050565b7f455243373231456e756d657261626c653a20676c6f62616c20696e646578206f60008201527f7574206f6620626f756e64730000000000000000000000000000000000000000602082015250565b6000613bd5602c8361311d565b9150613be082613b79565b604082019050919050565b60006020820190508181036000830152613c0481613bc8565b9050919050565b7f4e487b7100000000000000000000000000000000000000000000000000000000600052603260045260246000fd5b7f4552433732313a20696e76616c696420746f6b656e2049440000000000000000600082015250565b6000613c7060188361311d565b9150613c7b82613c3a565b602082019050919050565b60006020820190508181036000830152613c9f81613c63565b9050919050565b7f52656769737472793a204e4f545f414e5f4f574e455200000000000000000000600082015250565b6000613cdc60168361311d565b9150613ce782613ca6565b602082019050919050565b60006020820190508181036000830152613d0b81613ccf565b9050919050565b7f4552433732313a2061646472657373207a65726f206973206e6f74206120766160008201527f6c6964206f776e65720000000000000000000000000000000000000000000000602082015250565b6000613d6e60298361311d565b9150613d7982613d12565b604082019050919050565b60006020820190508181036000830152613d9d81613d61565b9050919050565b7f496e697469616c697a61626c653a20636f6e747261637420697320616c72656160008201527f647920696e697469616c697a6564000000000000000000000000000000000000602082015250565b6000613e00602e8361311d565b9150613e0b82613da4565b604082019050919050565b60006020820190508181036000830152613e2f81613df3565b9050919050565b6000819050919050565b600060ff82169050919050565b6000819050919050565b6000613e72613e6d613e6884613e36565b613e4d565b613e40565b9050919050565b613e8281613e57565b82525050565b6000602082019050613e9d6000830184613e79565b92915050565b7f52656769737472793a20544c445f454d50545900000000000000000000000000600082015250565b6000613ed960138361311d565b9150613ee482613ea3565b602082019050919050565b60006020820190508181036000830152613f0881613ecc565b9050919050565b600081905092915050565b6000613f268385613f0f565b9350613f338385846136a5565b82840190509392505050565b6000613f4c828486613f1a565b91508190509392505050565b6000613f64838561311d565b9350613f718385846136a5565b613f7a83613158565b840190509392505050565b60006020820190508181036000830152613fa0818486613f58565b90509392505050565b7f52656769737472793a20544c445f4e4f545f535550504f525445440000000000600082015250565b6000613fdf601b8361311d565b9150613fea82613fa9565b602082019050919050565b6000602082019050818103600083015261400e81613fd2565b9050919050565b7f52656769737472793a20534c445f454d50545900000000000000000000000000600082015250565b600061404b60138361311d565b915061405682614015565b602082019050919050565b6000602082019050818103600083015261407a8161403e565b9050919050565b7f4f776e61626c653a206e6577206f776e657220697320746865207a65726f206160008201527f6464726573730000000000000000000000000000000000000000000000000000602082015250565b60006140dd60268361311d565b91506140e882614081565b604082019050919050565b6000602082019050818103600083015261410c816140d0565b9050919050565b7f4552433732313a207472616e736665722066726f6d20696e636f72726563742060008201527f6f776e6572000000000000000000000000000000000000000000000000000000602082015250565b600061416f60258361311d565b915061417a82614113565b604082019050919050565b6000602082019050818103600083015261419e81614162565b9050919050565b7f4552433732313a207472616e7366657220746f20746865207a65726f2061646460008201527f7265737300000000000000000000000000000000000000000000000000000000602082015250565b600061420160248361311d565b915061420c826141a5565b604082019050919050565b60006020820190508181036000830152614230816141f4565b9050919050565b7f45524337323155524953746f726167653a2055524920736574206f66206e6f6e60008201527f6578697374656e7420746f6b656e000000000000000000000000000000000000602082015250565b6000614293602e8361311d565b915061429e82614237565b604082019050919050565b600060208201905081810360008301526142c281614286565b9050919050565b60008190508160005260206000209050919050565b60006020601f8301049050919050565b600082821b905092915050565b60006008830261432b7fffffffffffffffffffffffffffffffffffffffffffffffffffffffffffffffff826142ee565b61433586836142ee565b95508019841693508086168417925050509392505050565b600061436861436361435e846131c4565b613e4d565b6131c4565b9050919050565b6000819050919050565b6143828361434d565b61439661438e8261436f565b8484546142fb565b825550505050565b600090565b6143ab61439e565b6143b6818484614379565b505050565b5b818110156143da576143cf6000826143a3565b6001810190506143bc565b5050565b601f82111561441f576143f0816142c9565b6143f9846142de565b81016020851015614408578190505b61441c614414856142de565b8301826143bb565b50505b505050565b600082821c905092915050565b600061444260001984600802614424565b1980831691505092915050565b600061445b8383614431565b9150826002028217905092915050565b61447482613112565b67ffffffffffffffff81111561448d5761448c6135f9565b5b6144978254613900565b6144a28282856143de565b600060209050601f8311600181146144d557600084156144c3578287015190505b6144cd858261444f565b865550614535565b601f1984166144e3866142c9565b60005b8281101561450b578489015182556001820191506020850194506020810190506144e6565b868310156145285784890151614524601f891682614431565b8355505b6001600288020188555050505b505050505050565b7f4f776e61626c653a2063616c6c6572206973206e6f7420746865206f776e6572600082015250565b600061457360208361311d565b915061457e8261453d565b602082019050919050565b600060208201905081810360008301526145a281614566565b9050919050565b7f496e697469616c697a61626c653a20636f6e7472616374206973206e6f74206960008201527f6e697469616c697a696e67000000000000000000000000000000000000000000602082015250565b6000614605602b8361311d565b9150614610826145a9565b604082019050919050565b60006020820190508181036000830152614634816145f8565b9050919050565b7f4552433732313a20617070726f766520746f2063616c6c657200000000000000600082015250565b600061467160198361311d565b915061467c8261463b565b602082019050919050565b600060208201905081810360008301526146a081614664565b9050919050565b7f4552433732313a207472616e7366657220746f206e6f6e20455243373231526560008201527f63656976657220696d706c656d656e7465720000000000000000000000000000602082015250565b600061470360328361311d565b915061470e826146a7565b604082019050919050565b60006020820190508181036000830152614732816146f6565b9050919050565b600061474482613112565b61474e8185613f0f565b935061475e81856020860161312e565b80840191505092915050565b60006147768285614739565b91506147828284614739565b91508190509392505050565b600061479a8284614739565b915081905092915050565b6000819050919050565b6147c06147bb826131c4565b6147a5565b82525050565b6000819050919050565b6000819050919050565b6147eb6147e6826147c6565b6147d0565b82525050565b60006147fd82856147af565b60208201915061480d82846147da565b6020820191508190509392505050565b600081519050919050565b600082825260208201905092915050565b60006148448261481d565b61484e8185614828565b935061485e81856020860161312e565b61486781613158565b840191505092915050565b60006080820190506148876000830187613259565b6148946020830186613259565b6148a160408301856132ef565b81810360608301526148b38184614839565b905095945050505050565b6000815190506148cd81613083565b92915050565b6000602082840312156148e9576148e861304d565b5b60006148f7848285016148be565b91505092915050565b7f455243373231456e756d657261626c653a20636f6e736563757469766520747260008201527f616e7366657273206e6f7420737570706f727465640000000000000000000000602082015250565b600061495c60358361311d565b915061496782614900565b604082019050919050565b6000602082019050818103600083015261498b8161494f565b9050919050565b7f4552433732313a206d696e7420746f20746865207a65726f2061646472657373600082015250565b60006149c860208361311d565b91506149d382614992565b602082019050919050565b600060208201905081810360008301526149f7816149bb565b9050919050565b7f4552433732313a20746f6b656e20616c7265616479206d696e74656400000000600082015250565b6000614a34601c8361311d565b9150614a3f826149fe565b602082019050919050565b60006020820190508181036000830152614a6381614a27565b9050919050565b7f4e487b7100000000000000000000000000000000000000000000000000000000600052601260045260246000fd5b7f4e487b7100000000000000000000000000000000000000000000000000000000600052601160045260246000fd5b6000614ad3826131c4565b9150614ade836131c4565b9250828203905081811115614af657614af5614a99565b5b92915050565b7f4e487b7100000000000000000000000000000000000000000000000000000000600052603160045260246000fdfea264697066735822122078d0c21e80c34e971d7b0bbc98e212e2af2c1c6401726f59f286a93a3336b4ef64736f6c63430008120033",
  "linkReferences": {},
  "deployedLinkReferences": {}
}