{
  "_format": "hh-sol-artifact-1",
  "contractName": "DNSRegistry",
  "sourceName": "contracts/DNSRegistry.sol",
  "abi": [
    {
      "inputs": [],
      "stateMutability": "nonpayable",
      "type": "constructor"
    },
    {
      "anonymous": false,
      "inputs": [
        {
          "indexed": true,
          "internalType": "address",
          "name": "owner",
          "type": "address"
        },
        {
          "indexed": true,
          "internalType": "address",
          "name": "approved",
          "type": "address"
        },
        {
          "indexed": true,
          "internalType": "uint256",
          "name": "tokenId",
          "type": "uint256"
        }
      ],
      "name": "Approval",
      "type": "event"
    },
    {
      "anonymous": false,
      "inputs": [
        {
          "indexed": true,
          "internalType": "address",
          "name": "owner",
          "type": "address"
        },
        {
          "indexed": true,
          "internalType": "address",
          "name": "operator",
          "type": "address"
        },
        {
          "indexed": false,
          "internalType": "bool",
          "name": "approved",
          "type": "bool"
        }
      ],
      "name": "ApprovalForAll",
      "type": "event"
    },
    {
      "anonymous": false,
      "inputs": [
        {
          "indexed": false,
          "internalType": "uint256",
          "name": "tokenId",
          "type": "uint256"
        },
        {
          "indexed": false,
          "internalType": "address",
          "name": "owner",
          "type": "address"
        },
        {
          "indexed": false,
          "internalType": "string",
          "name": "sld",
          "type": "string"
        },
        {
          "indexed": false,
          "internalType": "string",
          "name": "tld",
          "type": "string"
        },
        {
          "indexed": false,
          "internalType": "address",
          "name": "addressRecord",
          "type": "address"
        }
      ],
      "name": "DomainAdded",
      "type": "event"
    },
    {
      "anonymous": false,
      "inputs": [
        {
          "indexed": false,
          "internalType": "uint8",
          "name": "version",
          "type": "uint8"
        }
      ],
      "name": "Initialized",
      "type": "event"
    },
    {
      "anonymous": false,
      "inputs": [
        {
          "indexed": true,
          "internalType": "address",
          "name": "previousOwner",
          "type": "address"
        },
        {
          "indexed": true,
          "internalType": "address",
          "name": "newOwner",
          "type": "address"
        }
      ],
      "name": "OwnershipTransferred",
      "type": "event"
    },
    {
      "anonymous": false,
      "inputs": [
        {
          "indexed": false,
          "internalType": "string",
          "name": "tld",
          "type": "string"
        }
      ],
      "name": "TLDAdded",
      "type": "event"
    },
    {
      "anonymous": false,
      "inputs": [
        {
          "indexed": false,
          "internalType": "string",
          "name": "tld",
          "type": "string"
        }
      ],
      "name": "TLDRemoved",
      "type": "event"
    },
    {
      "anonymous": false,
      "inputs": [
        {
          "indexed": true,
          "internalType": "address",
          "name": "from",
          "type": "address"
        },
        {
          "indexed": true,
          "internalType": "address",
          "name": "to",
          "type": "address"
        },
        {
          "indexed": true,
          "internalType": "uint256",
          "name": "tokenId",
          "type": "uint256"
        }
      ],
      "name": "Transfer",
      "type": "event"
    },
    {
      "inputs": [
        {
          "internalType": "string",
          "name": "tld",
          "type": "string"
        }
      ],
      "name": "addTLD",
      "outputs": [],
      "stateMutability": "nonpayable",
      "type": "function"
    },
    {
      "inputs": [
        {
          "internalType": "address",
          "name": "to",
          "type": "address"
        },
        {
          "internalType": "uint256",
          "name": "tokenId",
          "type": "uint256"
        }
      ],
      "name": "approve",
      "outputs": [],
      "stateMutability": "nonpayable",
      "type": "function"
    },
    {
      "inputs": [
        {
          "internalType": "address",
          "name": "owner",
          "type": "address"
        }
      ],
      "name": "balanceOf",
      "outputs": [
        {
          "internalType": "uint256",
          "name": "",
          "type": "uint256"
        }
      ],
      "stateMutability": "view",
      "type": "function"
    },
    {
      "inputs": [
        {
          "internalType": "uint256",
          "name": "tokenId",
          "type": "uint256"
        }
      ],
      "name": "burn",
      "outputs": [],
      "stateMutability": "nonpayable",
      "type": "function"
    },
    {
      "inputs": [
        {
          "internalType": "uint256",
          "name": "tokenId",
          "type": "uint256"
        }
      ],
      "name": "getApproved",
      "outputs": [
        {
          "internalType": "address",
          "name": "",
          "type": "address"
        }
      ],
      "stateMutability": "view",
      "type": "function"
    },
    {
      "inputs": [],
      "name": "initialize",
      "outputs": [],
      "stateMutability": "nonpayable",
      "type": "function"
    },
    {
      "inputs": [
        {
          "internalType": "address",
          "name": "owner",
          "type": "address"
        },
        {
          "internalType": "address",
          "name": "operator",
          "type": "address"
        }
      ],
      "name": "isApprovedForAll",
      "outputs": [
        {
          "internalType": "bool",
          "name": "",
          "type": "bool"
        }
      ],
      "stateMutability": "view",
      "type": "function"
    },
    {
      "inputs": [
        {
          "internalType": "string",
          "name": "sld",
          "type": "string"
        },
        {
          "internalType": "string",
          "name": "tld",
          "type": "string"
        },
        {
          "internalType": "address",
          "name": "addressRecord",
          "type": "address"
        },
        {
          "internalType": "string",
          "name": "meatadaURI",
          "type": "string"
        }
      ],
      "name": "mintSLD",
      "outputs": [],
      "stateMutability": "nonpayable",
      "type": "function"
    },
    {
      "inputs": [],
      "name": "name",
      "outputs": [
        {
          "internalType": "string",
          "name": "",
          "type": "string"
        }
      ],
      "stateMutability": "view",
      "type": "function"
    },
    {
      "inputs": [],
      "name": "owner",
      "outputs": [
        {
          "internalType": "address",
          "name": "",
          "type": "address"
        }
      ],
      "stateMutability": "view",
      "type": "function"
    },
    {
      "inputs": [
        {
          "internalType": "uint256",
          "name": "tokenId",
          "type": "uint256"
        }
      ],
      "name": "ownerOf",
      "outputs": [
        {
          "internalType": "address",
          "name": "",
          "type": "address"
        }
      ],
      "stateMutability": "view",
      "type": "function"
    },
    {
      "inputs": [
        {
          "internalType": "uint256",
          "name": "",
          "type": "uint256"
        }
      ],
      "name": "records",
      "outputs": [
        {
          "internalType": "address",
          "name": "",
          "type": "address"
        }
      ],
      "stateMutability": "view",
      "type": "function"
    },
    {
      "inputs": [
        {
          "internalType": "string",
          "name": "tld",
          "type": "string"
        }
      ],
      "name": "removeTLD",
      "outputs": [],
      "stateMutability": "nonpayable",
      "type": "function"
    },
    {
      "inputs": [],
      "name": "renounceOwnership",
      "outputs": [],
      "stateMutability": "nonpayable",
      "type": "function"
    },
    {
      "inputs": [
        {
          "internalType": "address",
          "name": "from",
          "type": "address"
        },
        {
          "internalType": "address",
          "name": "to",
          "type": "address"
        },
        {
          "internalType": "uint256",
          "name": "tokenId",
          "type": "uint256"
        }
      ],
      "name": "safeTransferFrom",
      "outputs": [],
      "stateMutability": "nonpayable",
      "type": "function"
    },
    {
      "inputs": [
        {
          "internalType": "address",
          "name": "from",
          "type": "address"
        },
        {
          "internalType": "address",
          "name": "to",
          "type": "address"
        },
        {
          "internalType": "uint256",
          "name": "tokenId",
          "type": "uint256"
        },
        {
          "internalType": "bytes",
          "name": "data",
          "type": "bytes"
        }
      ],
      "name": "safeTransferFrom",
      "outputs": [],
      "stateMutability": "nonpayable",
      "type": "function"
    },
    {
      "inputs": [
        {
          "internalType": "address",
          "name": "operator",
          "type": "address"
        },
        {
          "internalType": "bool",
          "name": "approved",
          "type": "bool"
        }
      ],
      "name": "setApprovalForAll",
      "outputs": [],
      "stateMutability": "nonpayable",
      "type": "function"
    },
    {
      "inputs": [
        {
          "internalType": "string",
          "name": "",
          "type": "string"
        }
      ],
      "name": "supportedTLDs",
      "outputs": [
        {
          "internalType": "bool",
          "name": "",
          "type": "bool"
        }
      ],
      "stateMutability": "view",
      "type": "function"
    },
    {
      "inputs": [
        {
          "internalType": "bytes4",
          "name": "interfaceId",
          "type": "bytes4"
        }
      ],
      "name": "supportsInterface",
      "outputs": [
        {
          "internalType": "bool",
          "name": "",
          "type": "bool"
        }
      ],
      "stateMutability": "view",
      "type": "function"
    },
    {
      "inputs": [],
      "name": "symbol",
      "outputs": [
        {
          "internalType": "string",
          "name": "",
          "type": "string"
        }
      ],
      "stateMutability": "view",
      "type": "function"
    },
    {
      "inputs": [
        {
          "internalType": "uint256",
          "name": "index",
          "type": "uint256"
        }
      ],
      "name": "tokenByIndex",
      "outputs": [
        {
          "internalType": "uint256",
          "name": "",
          "type": "uint256"
        }
      ],
      "stateMutability": "view",
      "type": "function"
    },
    {
      "inputs": [
        {
          "internalType": "address",
          "name": "owner",
          "type": "address"
        },
        {
          "internalType": "uint256",
          "name": "index",
          "type": "uint256"
        }
      ],
      "name": "tokenOfOwnerByIndex",
      "outputs": [
        {
          "internalType": "uint256",
          "name": "",
          "type": "uint256"
        }
      ],
      "stateMutability": "view",
      "type": "function"
    },
    {
      "inputs": [
        {
          "internalType": "uint256",
          "name": "tokenId",
          "type": "uint256"
        }
      ],
      "name": "tokenURI",
      "outputs": [
        {
          "internalType": "string",
          "name": "",
          "type": "string"
        }
      ],
      "stateMutability": "view",
      "type": "function"
    },
    {
      "inputs": [],
      "name": "totalSupply",
      "outputs": [
        {
          "internalType": "uint256",
          "name": "",
          "type": "uint256"
        }
      ],
      "stateMutability": "view",
      "type": "function"
    },
    {
      "inputs": [
        {
          "internalType": "address",
          "name": "from",
          "type": "address"
        },
        {
          "internalType": "address",
          "name": "to",
          "type": "address"
        },
        {
          "internalType": "uint256",
          "name": "tokenId",
          "type": "uint256"
        }
      ],
      "name": "transferFrom",
      "outputs": [],
      "stateMutability": "nonpayable",
      "type": "function"
    },
    {
      "inputs": [
        {
          "internalType": "address",
          "name": "newOwner",
          "type": "address"
        }
      ],
      "name": "transferOwnership",
      "outputs": [],
      "stateMutability": "nonpayable",
      "type": "function"
    },
    {
      "inputs": [
        {
          "internalType": "uint256",
          "name": "tokenId",
          "type": "uint256"
        },
        {
          "internalType": "address",
          "name": "addressRecord",
          "type": "address"
        },
        {
          "internalType": "string",
          "name": "meatadaURI",
          "type": "string"
        }
      ],
      "name": "updateSLD",
      "outputs": [],
      "stateMutability": "nonpayable",
      "type": "function"
    }
  ],
  "bytecode": "0x60806040523480156200001157600080fd5b50620000226200002860201b60201c565b620001d3565b600060019054906101000a900460ff16156200007b576040517f08c379a0000000000000000000000000000000000000000000000000000000008152600401620000729062000176565b60405180910390fd5b60ff801660008054906101000a900460ff1660ff161015620000ed5760ff6000806101000a81548160ff021916908360ff1602179055507f7f26b83ff96e1f2b6a682f133852f6798a09c465da95921460cefb384740249860ff604051620000e49190620001b6565b60405180910390a15b565b600082825260208201905092915050565b7f496e697469616c697a61626c653a20636f6e747261637420697320696e69746960008201527f616c697a696e6700000000000000000000000000000000000000000000000000602082015250565b60006200015e602783620000ef565b91506200016b8262000100565b604082019050919050565b6000602082019050818103600083015262000191816200014f565b9050919050565b600060ff82169050919050565b620001b08162000198565b82525050565b6000602082019050620001cd6000830184620001a5565b92915050565b614c0980620001e36000396000f3fe608060405234801561001057600080fd5b50600436106101a95760003560e01c806370a08231116100f957806396da587311610097578063b88d4fde11610071578063b88d4fde146104b6578063c87b56dd146104d2578063e985e9c514610502578063f2fde38b14610532576101a9565b806396da58731461044e578063a22cb4651461046a578063b003692a14610486576101a9565b80638180d972116100d35780638180d972146103da5780638da5cb5b146103f657806395caf2281461041457806395d89b4114610430576101a9565b806370a0823114610396578063715018a6146103c65780638129fc1c146103d0576101a9565b80632f745c591161016657806342966c681161014057806342966c68146102fe5780634f6ccce71461031a5780636352211e1461034a5780636b7f07531461037a576101a9565b80632f745c591461028257806334461067146102b257806342842e0e146102e2576101a9565b806301ffc9a7146101ae57806306fdde03146101de578063081812fc146101fc578063095ea7b31461022c57806318160ddd1461024857806323b872dd14610266575b600080fd5b6101c860048036038101906101c391906130f2565b61054e565b6040516101d5919061313a565b60405180910390f35b6101e6610560565b6040516101f391906131e5565b60405180910390f35b6102166004803603810190610211919061323d565b6105f2565b60405161022391906132ab565b60405180910390f35b610246600480360381019061024191906132f2565b610638565b005b61025061074f565b60405161025d9190613341565b60405180910390f35b610280600480360381019061027b919061335c565b61075c565b005b61029c600480360381019061029791906132f2565b6107bc565b6040516102a99190613341565b60405180910390f35b6102cc60048036038101906102c7919061323d565b610861565b6040516102d991906132ab565b60405180910390f35b6102fc60048036038101906102f7919061335c565b610895565b005b6103186004803603810190610313919061323d565b6108b5565b005b610334600480360381019061032f919061323d565b610911565b6040516103419190613341565b60405180910390f35b610364600480360381019061035f919061323d565b610982565b60405161037191906132ab565b60405180910390f35b610394600480360381019061038f9190613414565b610a08565b005b6103b060048036038101906103ab9190613488565b610b25565b6040516103bd9190613341565b60405180910390f35b6103ce610bdc565b005b6103d8610bf0565b005b6103f460048036038101906103ef91906134b5565b610dba565b005b6103fe610e76565b60405161040b91906132ab565b60405180910390f35b61042e60048036038101906104299190613502565b610ea1565b005b6104386110e3565b60405161044591906131e5565b60405180910390f35b610468600480360381019061046391906134b5565b611175565b005b610484600480360381019061047f91906135f7565b61123a565b005b6104a0600480360381019061049b9190613767565b611250565b6040516104ad919061313a565b60405180910390f35b6104d060048036038101906104cb9190613851565b611287565b005b6104ec60048036038101906104e7919061323d565b6112e9565b6040516104f991906131e5565b60405180910390f35b61051c600480360381019061051791906138d4565b6112fb565b604051610529919061313a565b60405180910390f35b61054c60048036038101906105479190613488565b61138f565b005b600061055982611412565b9050919050565b60606065805461056f90613943565b80601f016020809104026020016040519081016040528092919081815260200182805461059b90613943565b80156105e85780601f106105bd576101008083540402835291602001916105e8565b820191906000526020600020905b8154815290600101906020018083116105cb57829003601f168201915b5050505050905090565b60006105fd8261148c565b6069600083815260200190815260200160002060009054906101000a900473ffffffffffffffffffffffffffffffffffffffff169050919050565b600061064382610982565b90508073ffffffffffffffffffffffffffffffffffffffff168373ffffffffffffffffffffffffffffffffffffffff16036106b3576040517f08c379a00000000000000000000000000000000000000000000000000000000081526004016106aa906139e6565b60405180910390fd5b8073ffffffffffffffffffffffffffffffffffffffff166106d26114d7565b73ffffffffffffffffffffffffffffffffffffffff1614806107015750610700816106fb6114d7565b6112fb565b5b610740576040517f08c379a000000000000000000000000000000000000000000000000000000000815260040161073790613a78565b60405180910390fd5b61074a83836114df565b505050565b600060fd80549050905090565b61076d6107676114d7565b82611598565b6107ac576040517f08c379a00000000000000000000000000000000000000000000000000000000081526004016107a390613b0a565b60405180910390fd5b6107b783838361162d565b505050565b60006107c783610b25565b8210610808576040517f08c379a00000000000000000000000000000000000000000000000000000000081526004016107ff90613b9c565b60405180910390fd5b60fb60008473ffffffffffffffffffffffffffffffffffffffff1673ffffffffffffffffffffffffffffffffffffffff168152602001908152602001600020600083815260200190815260200160002054905092915050565b6101606020528060005260406000206000915054906101000a900473ffffffffffffffffffffffffffffffffffffffff1681565b6108b083838360405180602001604052806000815250611287565b505050565b6108c66108c06114d7565b82611598565b610905576040517f08c379a00000000000000000000000000000000000000000000000000000000081526004016108fc90613b0a565b60405180910390fd5b61090e81611926565b50565b600061091b61074f565b821061095c576040517f08c379a000000000000000000000000000000000000000000000000000000000815260040161095390613c2e565b60405180910390fd5b60fd82815481106109705761096f613c4e565b5b90600052602060002001549050919050565b60008061098e83611969565b9050600073ffffffffffffffffffffffffffffffffffffffff168173ffffffffffffffffffffffffffffffffffffffff16036109ff576040517f08c379a00000000000000000000000000000000000000000000000000000000081526004016109f690613cc9565b60405180910390fd5b80915050919050565b3373ffffffffffffffffffffffffffffffffffffffff16610a2885610982565b73ffffffffffffffffffffffffffffffffffffffff1614610a7e576040517f08c379a0000000000000000000000000000000000000000000000000000000008152600401610a7590613d35565b60405180910390fd5b610acc8483838080601f016020809104026020016040519081016040528093929190818152602001838380828437600081840152601f19601f820116905080830192505050505050506119a6565b82610160600086815260200190815260200160002060006101000a81548173ffffffffffffffffffffffffffffffffffffffff021916908373ffffffffffffffffffffffffffffffffffffffff16021790555050505050565b60008073ffffffffffffffffffffffffffffffffffffffff168273ffffffffffffffffffffffffffffffffffffffff1603610b95576040517f08c379a0000000000000000000000000000000000000000000000000000000008152600401610b8c90613dc7565b60405180910390fd5b606860008373ffffffffffffffffffffffffffffffffffffffff1673ffffffffffffffffffffffffffffffffffffffff168152602001908152602001600020549050919050565b610be4611a13565b610bee6000611a91565b565b60008060019054906101000a900460ff16159050808015610c215750600160008054906101000a900460ff1660ff16105b80610c4e5750610c3030611b59565b158015610c4d5750600160008054906101000a900460ff1660ff16145b5b610c8d576040517f08c379a0000000000000000000000000000000000000000000000000000000008152600401610c8490613e59565b60405180910390fd5b60016000806101000a81548160ff021916908360ff1602179055508015610cca576001600060016101000a81548160ff0219169083151502179055505b610d3e6040518060400160405280600b81526020017f444e5352656769737472790000000000000000000000000000000000000000008152506040518060400160405280600381526020017f444e530000000000000000000000000000000000000000000000000000000000815250611b7c565b610d46611bd9565b610d4e611c2a565b610d56611c7b565b610d5e611cd4565b8015610db75760008060016101000a81548160ff0219169083151502179055507f7f26b83ff96e1f2b6a682f133852f6798a09c465da95921460cefb38474024986001604051610dae9190613ecb565b60405180910390a15b50565b610dc2611a13565b60008282905003610e08576040517f08c379a0000000000000000000000000000000000000000000000000000000008152600401610dff90613f32565b60405180910390fd5b61015f8282604051610e1b929190613f82565b908152602001604051809103902060006101000a81549060ff02191690557f3b14beeab8d6fec278a2548b0cf4f81c07eb2e20c9857409ee3683fc6339fede8282604051610e6a929190613fc8565b60405180910390a15050565b600061012d60009054906101000a900473ffffffffffffffffffffffffffffffffffffffff16905090565b61015f8585604051610eb4929190613f82565b908152602001604051809103902060009054906101000a900460ff16610f0f576040517f08c379a0000000000000000000000000000000000000000000000000000000008152600401610f0690614038565b60405180910390fd5b60008787905003610f55576040517f08c379a0000000000000000000000000000000000000000000000000000000008152600401610f4c906140a4565b60405180910390fd5b6000610fe986868080601f016020809104026020016040519081016040528093929190818152602001838380828437600081840152601f19601f8201169050808301925050505050505089898080601f016020809104026020016040519081016040528093929190818152602001838380828437600081840152601f19601f82011690508083019250505050505050611d25565b9050610ff53382611d8c565b6110438184848080601f016020809104026020016040519081016040528093929190818152602001838380828437600081840152601f19601f820116905080830192505050505050506119a6565b83610160600083815260200190815260200160002060006101000a81548173ffffffffffffffffffffffffffffffffffffffff021916908373ffffffffffffffffffffffffffffffffffffffff1602179055507ff7921ddec44b3ce3236b86a9d6e0f2b2727d9c0f5f40f41544339e5964bbc44b81338a8a8a8a8a6040516110d197969594939291906140c4565b60405180910390a15050505050505050565b6060606680546110f290613943565b80601f016020809104026020016040519081016040528092919081815260200182805461111e90613943565b801561116b5780601f106111405761010080835404028352916020019161116b565b820191906000526020600020905b81548152906001019060200180831161114e57829003601f168201915b5050505050905090565b61117d611a13565b600082829050036111c3576040517f08c379a00000000000000000000000000000000000000000000000000000000081526004016111ba90613f32565b60405180910390fd5b600161015f83836040516111d8929190613f82565b908152602001604051809103902060006101000a81548160ff0219169083151502179055507fed3f23f55411017bf02ca9b55fe0b475cda6263efccf43fb54e11659e54f4f66828260405161122e929190613fc8565b60405180910390a15050565b61124c6112456114d7565b8383611daa565b5050565b61015f818051602081018201805184825260208301602085012081835280955050505050506000915054906101000a900460ff1681565b6112986112926114d7565b83611598565b6112d7576040517f08c379a00000000000000000000000000000000000000000000000000000000081526004016112ce90613b0a565b60405180910390fd5b6112e384848484611f16565b50505050565b60606112f482611f72565b9050919050565b6000606a60008473ffffffffffffffffffffffffffffffffffffffff1673ffffffffffffffffffffffffffffffffffffffff16815260200190815260200160002060008373ffffffffffffffffffffffffffffffffffffffff1673ffffffffffffffffffffffffffffffffffffffff16815260200190815260200160002060009054906101000a900460ff16905092915050565b611397611a13565b600073ffffffffffffffffffffffffffffffffffffffff168173ffffffffffffffffffffffffffffffffffffffff1603611406576040517f08c379a00000000000000000000000000000000000000000000000000000000081526004016113fd9061419b565b60405180910390fd5b61140f81611a91565b50565b60007f780e9d63000000000000000000000000000000000000000000000000000000007bffffffffffffffffffffffffffffffffffffffffffffffffffffffff1916827bffffffffffffffffffffffffffffffffffffffffffffffffffffffff19161480611485575061148482612084565b5b9050919050565b61149581612166565b6114d4576040517f08c379a00000000000000000000000000000000000000000000000000000000081526004016114cb90613cc9565b60405180910390fd5b50565b600033905090565b816069600083815260200190815260200160002060006101000a81548173ffffffffffffffffffffffffffffffffffffffff021916908373ffffffffffffffffffffffffffffffffffffffff160217905550808273ffffffffffffffffffffffffffffffffffffffff1661155283610982565b73ffffffffffffffffffffffffffffffffffffffff167f8c5be1e5ebec7d5bd14f71427d1e84f3dd0314c0f7b2291e5b200ac8c7c3b92560405160405180910390a45050565b6000806115a483610982565b90508073ffffffffffffffffffffffffffffffffffffffff168473ffffffffffffffffffffffffffffffffffffffff1614806115e657506115e581856112fb565b5b8061162457508373ffffffffffffffffffffffffffffffffffffffff1661160c846105f2565b73ffffffffffffffffffffffffffffffffffffffff16145b91505092915050565b8273ffffffffffffffffffffffffffffffffffffffff1661164d82610982565b73ffffffffffffffffffffffffffffffffffffffff16146116a3576040517f08c379a000000000000000000000000000000000000000000000000000000000815260040161169a9061422d565b60405180910390fd5b600073ffffffffffffffffffffffffffffffffffffffff168273ffffffffffffffffffffffffffffffffffffffff1603611712576040517f08c379a0000000000000000000000000000000000000000000000000000000008152600401611709906142bf565b60405180910390fd5b61171f83838360016121a7565b8273ffffffffffffffffffffffffffffffffffffffff1661173f82610982565b73ffffffffffffffffffffffffffffffffffffffff1614611795576040517f08c379a000000000000000000000000000000000000000000000000000000000815260040161178c9061422d565b60405180910390fd5b6069600082815260200190815260200160002060006101000a81549073ffffffffffffffffffffffffffffffffffffffff02191690556001606860008573ffffffffffffffffffffffffffffffffffffffff1673ffffffffffffffffffffffffffffffffffffffff168152602001908152602001600020600082825403925050819055506001606860008473ffffffffffffffffffffffffffffffffffffffff1673ffffffffffffffffffffffffffffffffffffffff16815260200190815260200160002060008282540192505081905550816067600083815260200190815260200160002060006101000a81548173ffffffffffffffffffffffffffffffffffffffff021916908373ffffffffffffffffffffffffffffffffffffffff160217905550808273ffffffffffffffffffffffffffffffffffffffff168473ffffffffffffffffffffffffffffffffffffffff167fddf252ad1be2c89b69c2b068fc378daa952ba7f163c4a11628f55a4df523b3ef60405160405180910390a461192183838360016121b9565b505050565b61192f816121bf565b610160600082815260200190815260200160002060006101000a81549073ffffffffffffffffffffffffffffffffffffffff021916905550565b60006067600083815260200190815260200160002060009054906101000a900473ffffffffffffffffffffffffffffffffffffffff169050919050565b6119af82612166565b6119ee576040517f08c379a00000000000000000000000000000000000000000000000000000000081526004016119e590614351565b60405180910390fd5b80609760008481526020019081526020016000209081611a0e9190614513565b505050565b611a1b6114d7565b73ffffffffffffffffffffffffffffffffffffffff16611a39610e76565b73ffffffffffffffffffffffffffffffffffffffff1614611a8f576040517f08c379a0000000000000000000000000000000000000000000000000000000008152600401611a8690614631565b60405180910390fd5b565b600061012d60009054906101000a900473ffffffffffffffffffffffffffffffffffffffff1690508161012d60006101000a81548173ffffffffffffffffffffffffffffffffffffffff021916908373ffffffffffffffffffffffffffffffffffffffff1602179055508173ffffffffffffffffffffffffffffffffffffffff168173ffffffffffffffffffffffffffffffffffffffff167f8be0079c531659141344cd1fd0a4f28419497f9722a3daafe3b4186f6b6457e060405160405180910390a35050565b6000808273ffffffffffffffffffffffffffffffffffffffff163b119050919050565b600060019054906101000a900460ff16611bcb576040517f08c379a0000000000000000000000000000000000000000000000000000000008152600401611bc2906146c3565b60405180910390fd5b611bd58282612212565b5050565b600060019054906101000a900460ff16611c28576040517f08c379a0000000000000000000000000000000000000000000000000000000008152600401611c1f906146c3565b60405180910390fd5b565b600060019054906101000a900460ff16611c79576040517f08c379a0000000000000000000000000000000000000000000000000000000008152600401611c70906146c3565b60405180910390fd5b565b600060019054906101000a900460ff16611cca576040517f08c379a0000000000000000000000000000000000000000000000000000000008152600401611cc1906146c3565b60405180910390fd5b611cd2612285565b565b600060019054906101000a900460ff16611d23576040517f08c379a0000000000000000000000000000000000000000000000000000000008152600401611d1a906146c3565b60405180910390fd5b565b600080825103611d6a576040517f08c379a0000000000000000000000000000000000000000000000000000000008152600401611d61906140a4565b60405180910390fd5b6000611d776000856122e6565b9050611d8381846122e6565b91505092915050565b611da6828260405180602001604052806000815250612342565b5050565b8173ffffffffffffffffffffffffffffffffffffffff168373ffffffffffffffffffffffffffffffffffffffff1603611e18576040517f08c379a0000000000000000000000000000000000000000000000000000000008152600401611e0f9061472f565b60405180910390fd5b80606a60008573ffffffffffffffffffffffffffffffffffffffff1673ffffffffffffffffffffffffffffffffffffffff16815260200190815260200160002060008473ffffffffffffffffffffffffffffffffffffffff1673ffffffffffffffffffffffffffffffffffffffff16815260200190815260200160002060006101000a81548160ff0219169083151502179055508173ffffffffffffffffffffffffffffffffffffffff168373ffffffffffffffffffffffffffffffffffffffff167f17307eab39ab6107e8899845ad3d59bd9653f200f220920489ca2b5937696c3183604051611f09919061313a565b60405180910390a3505050565b611f2184848461162d565b611f2d8484848461239d565b611f6c576040517f08c379a0000000000000000000000000000000000000000000000000000000008152600401611f63906147c1565b60405180910390fd5b50505050565b6060611f7d8261148c565b6000609760008481526020019081526020016000208054611f9d90613943565b80601f0160208091040260200160405190810160405280929190818152602001828054611fc990613943565b80156120165780601f10611feb57610100808354040283529160200191612016565b820191906000526020600020905b815481529060010190602001808311611ff957829003601f168201915b505050505090506000612027612524565b9050600081510361203c57819250505061207f565b600082511115612071578082604051602001612059929190614812565b6040516020818303038152906040529250505061207f565b61207a84612561565b925050505b919050565b60007f80ac58cd000000000000000000000000000000000000000000000000000000007bffffffffffffffffffffffffffffffffffffffffffffffffffffffff1916827bffffffffffffffffffffffffffffffffffffffffffffffffffffffff1916148061214f57507f5b5e139f000000000000000000000000000000000000000000000000000000007bffffffffffffffffffffffffffffffffffffffffffffffffffffffff1916827bffffffffffffffffffffffffffffffffffffffffffffffffffffffff1916145b8061215f575061215e826125c9565b5b9050919050565b60008073ffffffffffffffffffffffffffffffffffffffff1661218883611969565b73ffffffffffffffffffffffffffffffffffffffff1614159050919050565b6121b384848484612633565b50505050565b50505050565b6121c881612791565b60006097600083815260200190815260200160002080546121e890613943565b90501461220f5760976000828152602001908152602001600020600061220e9190613029565b5b50565b600060019054906101000a900460ff16612261576040517f08c379a0000000000000000000000000000000000000000000000000000000008152600401612258906146c3565b60405180910390fd5b81606590816122709190614513565b5080606690816122809190614513565b505050565b600060019054906101000a900460ff166122d4576040517f08c379a00000000000000000000000000000000000000000000000000000000081526004016122cb906146c3565b60405180910390fd5b6122e46122df6114d7565b611a91565b565b600082826040516020016122fa9190614836565b60405160208183030381529060405280519060200120604051602001612321929190614899565b6040516020818303038152906040528051906020012060001c905092915050565b61234c83836128df565b612359600084848461239d565b612398576040517f08c379a000000000000000000000000000000000000000000000000000000000815260040161238f906147c1565b60405180910390fd5b505050565b60006123be8473ffffffffffffffffffffffffffffffffffffffff16611b59565b15612517578373ffffffffffffffffffffffffffffffffffffffff1663150b7a026123e76114d7565b8786866040518563ffffffff1660e01b8152600401612409949392919061491a565b6020604051808303816000875af192505050801561244557506040513d601f19601f82011682018060405250810190612442919061497b565b60015b6124c7573d8060008114612475576040519150601f19603f3d011682016040523d82523d6000602084013e61247a565b606091505b5060008151036124bf576040517f08c379a00000000000000000000000000000000000000000000000000000000081526004016124b6906147c1565b60405180910390fd5b805181602001fd5b63150b7a0260e01b7bffffffffffffffffffffffffffffffffffffffffffffffffffffffff1916817bffffffffffffffffffffffffffffffffffffffffffffffffffffffff19161491505061251c565b600190505b949350505050565b60606040518060400160405280601d81526020017f68747470733a2f2f6e667473746f726167652e6c696e6b2f697066732f000000815250905090565b606061256c8261148c565b6000612576612524565b9050600081511161259657604051806020016040528060008152506125c1565b806125a084612afc565b6040516020016125b1929190614812565b6040516020818303038152906040525b915050919050565b60007f01ffc9a7000000000000000000000000000000000000000000000000000000007bffffffffffffffffffffffffffffffffffffffffffffffffffffffff1916827bffffffffffffffffffffffffffffffffffffffffffffffffffffffff1916149050919050565b61263f84848484612bca565b6001811115612683576040517f08c379a000000000000000000000000000000000000000000000000000000000815260040161267a90614a1a565b60405180910390fd5b6000829050600073ffffffffffffffffffffffffffffffffffffffff168573ffffffffffffffffffffffffffffffffffffffff16036126ca576126c581612bd0565b612709565b8373ffffffffffffffffffffffffffffffffffffffff168573ffffffffffffffffffffffffffffffffffffffff1614612708576127078582612c19565b5b5b600073ffffffffffffffffffffffffffffffffffffffff168473ffffffffffffffffffffffffffffffffffffffff160361274b5761274681612d86565b61278a565b8473ffffffffffffffffffffffffffffffffffffffff168473ffffffffffffffffffffffffffffffffffffffff1614612789576127888482612e57565b5b5b5050505050565b600061279c82610982565b90506127ac8160008460016121a7565b6127b582610982565b90506069600083815260200190815260200160002060006101000a81549073ffffffffffffffffffffffffffffffffffffffff02191690556001606860008373ffffffffffffffffffffffffffffffffffffffff1673ffffffffffffffffffffffffffffffffffffffff168152602001908152602001600020600082825403925050819055506067600083815260200190815260200160002060006101000a81549073ffffffffffffffffffffffffffffffffffffffff021916905581600073ffffffffffffffffffffffffffffffffffffffff168273ffffffffffffffffffffffffffffffffffffffff167fddf252ad1be2c89b69c2b068fc378daa952ba7f163c4a11628f55a4df523b3ef60405160405180910390a46128db8160008460016121b9565b5050565b600073ffffffffffffffffffffffffffffffffffffffff168273ffffffffffffffffffffffffffffffffffffffff160361294e576040517f08c379a000000000000000000000000000000000000000000000000000000000815260040161294590614a86565b60405180910390fd5b61295781612166565b15612997576040517f08c379a000000000000000000000000000000000000000000000000000000000815260040161298e90614af2565b60405180910390fd5b6129a56000838360016121a7565b6129ae81612166565b156129ee576040517f08c379a00000000000000000000000000000000000000000000000000000000081526004016129e590614af2565b60405180910390fd5b6001606860008473ffffffffffffffffffffffffffffffffffffffff1673ffffffffffffffffffffffffffffffffffffffff16815260200190815260200160002060008282540192505081905550816067600083815260200190815260200160002060006101000a81548173ffffffffffffffffffffffffffffffffffffffff021916908373ffffffffffffffffffffffffffffffffffffffff160217905550808273ffffffffffffffffffffffffffffffffffffffff16600073ffffffffffffffffffffffffffffffffffffffff167fddf252ad1be2c89b69c2b068fc378daa952ba7f163c4a11628f55a4df523b3ef60405160405180910390a4612af86000838360016121b9565b5050565b606060006001612b0b84612ed6565b01905060008167ffffffffffffffff811115612b2a57612b2961363c565b5b6040519080825280601f01601f191660200182016040528015612b5c5781602001600182028036833780820191505090505b509050600082602001820190505b600115612bbf578080600190039150507f3031323334353637383961626364656600000000000000000000000000000000600a86061a8153600a8581612bb357612bb2614b12565b5b04945060008503612b6a575b819350505050919050565b50505050565b60fd8054905060fe60008381526020019081526020016000208190555060fd81908060018154018082558091505060019003906000526020600020016000909190919091505550565b60006001612c2684610b25565b612c309190614b70565b9050600060fc6000848152602001908152602001600020549050818114612d1557600060fb60008673ffffffffffffffffffffffffffffffffffffffff1673ffffffffffffffffffffffffffffffffffffffff16815260200190815260200160002060008481526020019081526020016000205490508060fb60008773ffffffffffffffffffffffffffffffffffffffff1673ffffffffffffffffffffffffffffffffffffffff1681526020019081526020016000206000848152602001908152602001600020819055508160fc600083815260200190815260200160002081905550505b60fc60008481526020019081526020016000206000905560fb60008573ffffffffffffffffffffffffffffffffffffffff1673ffffffffffffffffffffffffffffffffffffffff16815260200190815260200160002060008381526020019081526020016000206000905550505050565b6000600160fd80549050612d9a9190614b70565b9050600060fe6000848152602001908152602001600020549050600060fd8381548110612dca57612dc9613c4e565b5b906000526020600020015490508060fd8381548110612dec57612deb613c4e565b5b90600052602060002001819055508160fe60008381526020019081526020016000208190555060fe60008581526020019081526020016000206000905560fd805480612e3b57612e3a614ba4565b5b6001900381819060005260206000200160009055905550505050565b6000612e6283610b25565b90508160fb60008573ffffffffffffffffffffffffffffffffffffffff1673ffffffffffffffffffffffffffffffffffffffff1681526020019081526020016000206000838152602001908152602001600020819055508060fc600084815260200190815260200160002081905550505050565b600080600090507a184f03e93ff9f4daa797ed6e38ed64bf6a1f0100000000000000008310612f34577a184f03e93ff9f4daa797ed6e38ed64bf6a1f0100000000000000008381612f2a57612f29614b12565b5b0492506040810190505b6d04ee2d6d415b85acef81000000008310612f71576d04ee2d6d415b85acef81000000008381612f6757612f66614b12565b5b0492506020810190505b662386f26fc100008310612fa057662386f26fc100008381612f9657612f95614b12565b5b0492506010810190505b6305f5e1008310612fc9576305f5e1008381612fbf57612fbe614b12565b5b0492506008810190505b6127108310612fee576127108381612fe457612fe3614b12565b5b0492506004810190505b60648310613011576064838161300757613006614b12565b5b0492506002810190505b600a8310613020576001810190505b80915050919050565b50805461303590613943565b6000825580601f106130475750613066565b601f0160209004906000526020600020908101906130659190613069565b5b50565b5b8082111561308257600081600090555060010161306a565b5090565b6000604051905090565b600080fd5b600080fd5b60007fffffffff0000000000000000000000000000000000000000000000000000000082169050919050565b6130cf8161309a565b81146130da57600080fd5b50565b6000813590506130ec816130c6565b92915050565b60006020828403121561310857613107613090565b5b6000613116848285016130dd565b91505092915050565b60008115159050919050565b6131348161311f565b82525050565b600060208201905061314f600083018461312b565b92915050565b600081519050919050565b600082825260208201905092915050565b60005b8381101561318f578082015181840152602081019050613174565b60008484015250505050565b6000601f19601f8301169050919050565b60006131b782613155565b6131c18185613160565b93506131d1818560208601613171565b6131da8161319b565b840191505092915050565b600060208201905081810360008301526131ff81846131ac565b905092915050565b6000819050919050565b61321a81613207565b811461322557600080fd5b50565b60008135905061323781613211565b92915050565b60006020828403121561325357613252613090565b5b600061326184828501613228565b91505092915050565b600073ffffffffffffffffffffffffffffffffffffffff82169050919050565b60006132958261326a565b9050919050565b6132a58161328a565b82525050565b60006020820190506132c0600083018461329c565b92915050565b6132cf8161328a565b81146132da57600080fd5b50565b6000813590506132ec816132c6565b92915050565b6000806040838503121561330957613308613090565b5b6000613317858286016132dd565b925050602061332885828601613228565b9150509250929050565b61333b81613207565b82525050565b60006020820190506133566000830184613332565b92915050565b60008060006060848603121561337557613374613090565b5b6000613383868287016132dd565b9350506020613394868287016132dd565b92505060406133a586828701613228565b9150509250925092565b600080fd5b600080fd5b600080fd5b60008083601f8401126133d4576133d36133af565b5b8235905067ffffffffffffffff8111156133f1576133f06133b4565b5b60208301915083600182028301111561340d5761340c6133b9565b5b9250929050565b6000806000806060858703121561342e5761342d613090565b5b600061343c87828801613228565b945050602061344d878288016132dd565b935050604085013567ffffffffffffffff81111561346e5761346d613095565b5b61347a878288016133be565b925092505092959194509250565b60006020828403121561349e5761349d613090565b5b60006134ac848285016132dd565b91505092915050565b600080602083850312156134cc576134cb613090565b5b600083013567ffffffffffffffff8111156134ea576134e9613095565b5b6134f6858286016133be565b92509250509250929050565b60008060008060008060006080888a03121561352157613520613090565b5b600088013567ffffffffffffffff81111561353f5761353e613095565b5b61354b8a828b016133be565b9750975050602088013567ffffffffffffffff81111561356e5761356d613095565b5b61357a8a828b016133be565b9550955050604061358d8a828b016132dd565b935050606088013567ffffffffffffffff8111156135ae576135ad613095565b5b6135ba8a828b016133be565b925092505092959891949750929550565b6135d48161311f565b81146135df57600080fd5b50565b6000813590506135f1816135cb565b92915050565b6000806040838503121561360e5761360d613090565b5b600061361c858286016132dd565b925050602061362d858286016135e2565b9150509250929050565b600080fd5b7f4e487b7100000000000000000000000000000000000000000000000000000000600052604160045260246000fd5b6136748261319b565b810181811067ffffffffffffffff821117156136935761369261363c565b5b80604052505050565b60006136a6613086565b90506136b2828261366b565b919050565b600067ffffffffffffffff8211156136d2576136d161363c565b5b6136db8261319b565b9050602081019050919050565b82818337600083830152505050565b600061370a613705846136b7565b61369c565b90508281526020810184848401111561372657613725613637565b5b6137318482856136e8565b509392505050565b600082601f83011261374e5761374d6133af565b5b813561375e8482602086016136f7565b91505092915050565b60006020828403121561377d5761377c613090565b5b600082013567ffffffffffffffff81111561379b5761379a613095565b5b6137a784828501613739565b91505092915050565b600067ffffffffffffffff8211156137cb576137ca61363c565b5b6137d48261319b565b9050602081019050919050565b60006137f46137ef846137b0565b61369c565b9050828152602081018484840111156138105761380f613637565b5b61381b8482856136e8565b509392505050565b600082601f830112613838576138376133af565b5b81356138488482602086016137e1565b91505092915050565b6000806000806080858703121561386b5761386a613090565b5b6000613879878288016132dd565b945050602061388a878288016132dd565b935050604061389b87828801613228565b925050606085013567ffffffffffffffff8111156138bc576138bb613095565b5b6138c887828801613823565b91505092959194509250565b600080604083850312156138eb576138ea613090565b5b60006138f9858286016132dd565b925050602061390a858286016132dd565b9150509250929050565b7f4e487b7100000000000000000000000000000000000000000000000000000000600052602260045260246000fd5b6000600282049050600182168061395b57607f821691505b60208210810361396e5761396d613914565b5b50919050565b7f4552433732313a20617070726f76616c20746f2063757272656e74206f776e6560008201527f7200000000000000000000000000000000000000000000000000000000000000602082015250565b60006139d0602183613160565b91506139db82613974565b604082019050919050565b600060208201905081810360008301526139ff816139c3565b9050919050565b7f4552433732313a20617070726f76652063616c6c6572206973206e6f7420746f60008201527f6b656e206f776e6572206f7220617070726f76656420666f7220616c6c000000602082015250565b6000613a62603d83613160565b9150613a6d82613a06565b604082019050919050565b60006020820190508181036000830152613a9181613a55565b9050919050565b7f4552433732313a2063616c6c6572206973206e6f7420746f6b656e206f776e6560008201527f72206f7220617070726f76656400000000000000000000000000000000000000602082015250565b6000613af4602d83613160565b9150613aff82613a98565b604082019050919050565b60006020820190508181036000830152613b2381613ae7565b9050919050565b7f455243373231456e756d657261626c653a206f776e657220696e646578206f7560008201527f74206f6620626f756e6473000000000000000000000000000000000000000000602082015250565b6000613b86602b83613160565b9150613b9182613b2a565b604082019050919050565b60006020820190508181036000830152613bb581613b79565b9050919050565b7f455243373231456e756d657261626c653a20676c6f62616c20696e646578206f60008201527f7574206f6620626f756e64730000000000000000000000000000000000000000602082015250565b6000613c18602c83613160565b9150613c2382613bbc565b604082019050919050565b60006020820190508181036000830152613c4781613c0b565b9050919050565b7f4e487b7100000000000000000000000000000000000000000000000000000000600052603260045260246000fd5b7f4552433732313a20696e76616c696420746f6b656e2049440000000000000000600082015250565b6000613cb3601883613160565b9150613cbe82613c7d565b602082019050919050565b60006020820190508181036000830152613ce281613ca6565b9050919050565b7f52656769737472793a204e4f545f414e5f4f574e455200000000000000000000600082015250565b6000613d1f601683613160565b9150613d2a82613ce9565b602082019050919050565b60006020820190508181036000830152613d4e81613d12565b9050919050565b7f4552433732313a2061646472657373207a65726f206973206e6f74206120766160008201527f6c6964206f776e65720000000000000000000000000000000000000000000000602082015250565b6000613db1602983613160565b9150613dbc82613d55565b604082019050919050565b60006020820190508181036000830152613de081613da4565b9050919050565b7f496e697469616c697a61626c653a20636f6e747261637420697320616c72656160008201527f647920696e697469616c697a6564000000000000000000000000000000000000602082015250565b6000613e43602e83613160565b9150613e4e82613de7565b604082019050919050565b60006020820190508181036000830152613e7281613e36565b9050919050565b6000819050919050565b600060ff82169050919050565b6000819050919050565b6000613eb5613eb0613eab84613e79565b613e90565b613e83565b9050919050565b613ec581613e9a565b82525050565b6000602082019050613ee06000830184613ebc565b92915050565b7f52656769737472793a20544c445f454d50545900000000000000000000000000600082015250565b6000613f1c601383613160565b9150613f2782613ee6565b602082019050919050565b60006020820190508181036000830152613f4b81613f0f565b9050919050565b600081905092915050565b6000613f698385613f52565b9350613f768385846136e8565b82840190509392505050565b6000613f8f828486613f5d565b91508190509392505050565b6000613fa78385613160565b9350613fb48385846136e8565b613fbd8361319b565b840190509392505050565b60006020820190508181036000830152613fe3818486613f9b565b90509392505050565b7f52656769737472793a20544c445f4e4f545f535550504f525445440000000000600082015250565b6000614022601b83613160565b915061402d82613fec565b602082019050919050565b6000602082019050818103600083015261405181614015565b9050919050565b7f52656769737472793a20534c445f454d50545900000000000000000000000000600082015250565b600061408e601383613160565b915061409982614058565b602082019050919050565b600060208201905081810360008301526140bd81614081565b9050919050565b600060a0820190506140d9600083018a613332565b6140e6602083018961329c565b81810360408301526140f9818789613f9b565b9050818103606083015261410e818587613f9b565b905061411d608083018461329c565b98975050505050505050565b7f4f776e61626c653a206e6577206f776e657220697320746865207a65726f206160008201527f6464726573730000000000000000000000000000000000000000000000000000602082015250565b6000614185602683613160565b915061419082614129565b604082019050919050565b600060208201905081810360008301526141b481614178565b9050919050565b7f4552433732313a207472616e736665722066726f6d20696e636f72726563742060008201527f6f776e6572000000000000000000000000000000000000000000000000000000602082015250565b6000614217602583613160565b9150614222826141bb565b604082019050919050565b600060208201905081810360008301526142468161420a565b9050919050565b7f4552433732313a207472616e7366657220746f20746865207a65726f2061646460008201527f7265737300000000000000000000000000000000000000000000000000000000602082015250565b60006142a9602483613160565b91506142b48261424d565b604082019050919050565b600060208201905081810360008301526142d88161429c565b9050919050565b7f45524337323155524953746f726167653a2055524920736574206f66206e6f6e60008201527f6578697374656e7420746f6b656e000000000000000000000000000000000000602082015250565b600061433b602e83613160565b9150614346826142df565b604082019050919050565b6000602082019050818103600083015261436a8161432e565b9050919050565b60008190508160005260206000209050919050565b60006020601f8301049050919050565b600082821b905092915050565b6000600883026143d37fffffffffffffffffffffffffffffffffffffffffffffffffffffffffffffffff82614396565b6143dd8683614396565b95508019841693508086168417925050509392505050565b600061441061440b61440684613207565b613e90565b613207565b9050919050565b6000819050919050565b61442a836143f5565b61443e61443682614417565b8484546143a3565b825550505050565b600090565b614453614446565b61445e818484614421565b505050565b5b818110156144825761447760008261444b565b600181019050614464565b5050565b601f8211156144c75761449881614371565b6144a184614386565b810160208510156144b0578190505b6144c46144bc85614386565b830182614463565b50505b505050565b600082821c905092915050565b60006144ea600019846008026144cc565b1980831691505092915050565b600061450383836144d9565b9150826002028217905092915050565b61451c82613155565b67ffffffffffffffff8111156145355761453461363c565b5b61453f8254613943565b61454a828285614486565b600060209050601f83116001811461457d576000841561456b578287015190505b61457585826144f7565b8655506145dd565b601f19841661458b86614371565b60005b828110156145b35784890151825560018201915060208501945060208101905061458e565b868310156145d057848901516145cc601f8916826144d9565b8355505b6001600288020188555050505b505050505050565b7f4f776e61626c653a2063616c6c6572206973206e6f7420746865206f776e6572600082015250565b600061461b602083613160565b9150614626826145e5565b602082019050919050565b6000602082019050818103600083015261464a8161460e565b9050919050565b7f496e697469616c697a61626c653a20636f6e7472616374206973206e6f74206960008201527f6e697469616c697a696e67000000000000000000000000000000000000000000602082015250565b60006146ad602b83613160565b91506146b882614651565b604082019050919050565b600060208201905081810360008301526146dc816146a0565b9050919050565b7f4552433732313a20617070726f766520746f2063616c6c657200000000000000600082015250565b6000614719601983613160565b9150614724826146e3565b602082019050919050565b600060208201905081810360008301526147488161470c565b9050919050565b7f4552433732313a207472616e7366657220746f206e6f6e20455243373231526560008201527f63656976657220696d706c656d656e7465720000000000000000000000000000602082015250565b60006147ab603283613160565b91506147b68261474f565b604082019050919050565b600060208201905081810360008301526147da8161479e565b9050919050565b60006147ec82613155565b6147f68185613f52565b9350614806818560208601613171565b80840191505092915050565b600061481e82856147e1565b915061482a82846147e1565b91508190509392505050565b600061484282846147e1565b915081905092915050565b6000819050919050565b61486861486382613207565b61484d565b82525050565b6000819050919050565b6000819050919050565b61489361488e8261486e565b614878565b82525050565b60006148a58285614857565b6020820191506148b58284614882565b6020820191508190509392505050565b600081519050919050565b600082825260208201905092915050565b60006148ec826148c5565b6148f681856148d0565b9350614906818560208601613171565b61490f8161319b565b840191505092915050565b600060808201905061492f600083018761329c565b61493c602083018661329c565b6149496040830185613332565b818103606083015261495b81846148e1565b905095945050505050565b600081519050614975816130c6565b92915050565b60006020828403121561499157614990613090565b5b600061499f84828501614966565b91505092915050565b7f455243373231456e756d657261626c653a20636f6e736563757469766520747260008201527f616e7366657273206e6f7420737570706f727465640000000000000000000000602082015250565b6000614a04603583613160565b9150614a0f826149a8565b604082019050919050565b60006020820190508181036000830152614a33816149f7565b9050919050565b7f4552433732313a206d696e7420746f20746865207a65726f2061646472657373600082015250565b6000614a70602083613160565b9150614a7b82614a3a565b602082019050919050565b60006020820190508181036000830152614a9f81614a63565b9050919050565b7f4552433732313a20746f6b656e20616c7265616479206d696e74656400000000600082015250565b6000614adc601c83613160565b9150614ae782614aa6565b602082019050919050565b60006020820190508181036000830152614b0b81614acf565b9050919050565b7f4e487b7100000000000000000000000000000000000000000000000000000000600052601260045260246000fd5b7f4e487b7100000000000000000000000000000000000000000000000000000000600052601160045260246000fd5b6000614b7b82613207565b9150614b8683613207565b9250828203905081811115614b9e57614b9d614b41565b5b92915050565b7f4e487b7100000000000000000000000000000000000000000000000000000000600052603160045260246000fdfea264697066735822122091e32f21d4f5662e89f6d22b43666623ec3490c03e0e3f80814737e571b5ef8d64736f6c63430008120033",
  "linkReferences": {},
  "deployedLinkReferences": {}
}